:100000000C945F010C9442110C9417110C94EC1099
:100010000C94C1100C9496100C946B100C9440101E
:100020000C9415100C9489010C9438130C948901CC
:100030000C9489010C9489010C9489010C94890118
:100040000C94CB0F0C9489010C9489010C948901B8
:100050000C9489010C9489010C9489010C948901F8
:100060000C9489010C9489010C9489010C948901E8
:100070000C9489010C949D120C9489010C948901B3
:100080000C9489010C946D110C94890142030000B9
:10009000000000120D0000000000000101C08000FF
:1000A000000000000000000000060000000000004A
:1000B0000000000000000000000000000000000040
:1000C0000000000000003F000000000000000000F1
:1000D0000000000000000000000000000000000020
:1000E0000000000000000000000000000000000010
:1000F000000000000000000000000000020080007E
:1001000003008000040080000500800001008000E2
:1001100001008000010080000100800001008000DB
:100120000100800001008000010080000080FF00CD
:100130000081FF00FF000000FF000000FF00000042
:10014000FF000000FF000000FF000000FF000000B3
:10015000FF000000FF000000FF000000FF000000A3
:10016000FF000000FF000000FF000000FF00000093
:10017000FF000000FF000000FF000000FF00000083
:10018000FF000000FF000000FF000000FF00000073
:10019000FF000000FF000000FF000000700074007E
:1001A00078007C008000840088008C00900094001F
:1001B00098009C00A000A400A800AC00B000B4000F
:1001C000B800BC00C000C400C800CC00D000D400FF
:1001D000D800DC00E000E400E800EC00F000F400EF
:1001E000F800FC000001040108010C0100003A00C5
:1001F0003700340031002200610064000000390043
:1002000036003300300021002000630000003B0076
:100210003800350032002300620065000505050541
:100220000505050502020202020202020707040494
:100230000404040404040707030303030303030380
:100240000701010101010101010606060606060675
:10025000060102040810204080010204081020401A
:1002600080081001020408102040800102010204ED
:100270000810204080048040201008040201010280
:100280000408102040800000000A0B0C0000000051
:10029000000001040506000000000000000000004E
:1002A000000000000000000000000000000000004E
:1002B0000000000000000000000000008513112471
:1002C0001FBECFEFD0E1DEBFCDBF11E0A0E0B1E0B7
:1002D000E0E0FEE200E00BBF02C007900D92A23604
:1002E000B107D9F724E0A2E6B1E001C01D92AD3814
:1002F000B207E1F711E0CFE5D1E004C02197FE019C
:100300000E94AD15CE35D107C9F70E9496130C9403
:10031000FE160C94000090917C0481E0913208F06C
:1003200043C0809158048111FCCF80917B0422E06E
:100330002093580421E0209357042FEF2093560474
:100340002BE534E030935504209354041092530469
:10035000909352041092510490915104880F892B6C
:100360008093510480915004813029F510925004FB
:1003700080915104809373008091740083FDF8CFC5
:1003800085EC80937400809158048230E1F3809171
:1003900056048F3F91F080915604803281F0809115
:1003A0005604803371F084E010925A0410927C0459
:1003B00010925904089585EEE4CF80E0F5CF82E0F5
:1003C000F3CF83E0F1CF90E0FC01EA57FD4F249199
:1003D000FC01EF5AFD4F3491845E9D4FFC018491E6
:1003E000882341F12223C1F021502C30A8F4E22FC0
:1003F000F0E0E350FE4F0C94AD15330233020C02D3
:1004000009021B021E0221020C020C0225022B0211
:100410002F029FB59F779FBDE82FF0E0EE0FFF1FE3
:10042000E45FFD4FA591B4918FB7F894EC913E2B0A
:100430003C938FBF08959FB59F7DEDCF9FB5977F6C
:10044000EACF95B59F7D95BDE7CF90918B009F77C3
:1004500090938B00E1CF90918B009F7DF9CF90918D
:100460008B00977FF5CF93B79F7D93BFD5CFE82FB4
:10047000F0E0EA5CFB4F8085861739F06087618B7E
:10048000809138048360809338040895262F30E0EB
:1004900090913C049078691729F0909138049C6001
:1004A000909338043695322F222737952795822B43
:1004B00080933C0480933D040895E0911302F091F1
:1004C0001402309729F010925A0410927C04099477
:1004D0000895CF93DF93AC01E0911102F0911202E5
:1004E0003097F1F09091100280910F029817C0F0B0
:1004F00090E0292F30E02617370754F4D901AF5880
:10050000BE4F240F351FE90128812C939F5FF1CF47
:100510001092100260930F02CB01DF91CF910994EA
:10052000DF91CF910895CF93DF9390E0FC01EF5AD4
:10053000FD4F2491845E9D4FFC0184918823C9F076
:1005400090E0880F991FFC01E451FE4FA591B491F2
:10055000FC01E45FFD4FC591D49161110DC09FB7BF
:10056000F8948C91209582238C938881282328836A
:100570009FBFDF91CF910895623051F49FB7F894F7
:100580003C91822F809583238C93E8812E2BEFCF93
:100590008FB7F894EC912E2B2C938FBFEACF3FB7F7
:1005A000F8948091070290910802A0910902B091FD
:1005B0000A0222B706B600FE05C02F3F19F00196C9
:1005C000A11DB11D3FBFBA2FA92F982F8827BC01AD
:1005D000CD01620F711D811D911D42E0660F771FD5
:1005E000881F991F4A95D1F70895883008F5E82F9C
:1005F000F0E0EE0FFF1FE35EFE4F718360838150DA
:10060000873068F4E82FF0E0E85FFC4F0C94AD15FC
:100610001903260334034203490354036003809102
:100620006A008C7F482B40936A0089B7816089BF3C
:10063000089580916A00837F440F551F440F551F12
:10064000482B40936A0089B78260F1CF80916A009D
:100650008F7C74E0440F551F7A95E1F7482B409347
:100660006A0089B78460E3CF80916A008F7366E087
:10067000440F551F6A95E1F7482B40936A0089B7EC
:100680008860D5CF8AB78C7F482B4ABF89B78061F5
:10069000CECF8AB7837F440F551F440F551F482B79
:1006A0004ABF89B78062C3CF8AB78F7C24E0440FEA
:1006B000551F2A95E1F7482B4ABF89B78064B7CF09
:1006C0008AB78F7396E0440F551F9A95E1F7482B30
:1006D0004ABF89B78068ABCFFF920F931F93CF9328
:1006E000DF930E94CF0220916F0130917001EB01E6
:1006F000C21BD30B2091190230911A02C217D307E3
:1007000008F461C040912302509124024130510508
:1007100061F0E0914C02F0914D02208130914E0247
:1007200023233091170223134EC0709370016093FE
:100730006F0100911B0210911C024230510509F417
:1007400019C14330510509F454C14130510561F4D8
:1007500080916E01813009F449C0D8F1833009F4E9
:1007600086C0843009F4CFC0809123029091240286
:10077000019749F1C017D10708F073C180916C014E
:100780008F5F80936C018B30F0F081E090E090936C
:1007900024028093230241E050E06CE673E08091F4
:1007A0004A020E94F5021092170210926E0182E531
:1007B00090E090931C0280931B0283E290E0909360
:1007C0001A0280931902DF91CF911F910F91FF9030
:1007D0000895C017D10730F481E080936E01C09373
:1007E0006D01C2CF84E080936E01BECFC017D107E8
:1007F000E0F510926E0180916C018F5F80936C0127
:1008000020916D018C2F0C2E000C990B821B9109ED
:1008100027FD939597FF03C091958195910949977D
:1008200094F2109224021092230282E990E09093B5
:100830001C0280931B0282E590E090931A02809341
:10084000190210926C01F09018024F2D50E06CE6E6
:1008500073E080914A020E94F50280914E0293E07B
:10086000F91229C0809317027FCF83E0BCCFC01755
:10087000D10718F5109224021092230282E990E029
:1008800090931C0280931B0282E590E090931A02E1
:100890008093190210926C01F09018024F2D50E0D5
:1008A0006CE673E080914A020E94F50280914E024C
:1008B00033E0F316B9F280E0D5CF9091180293306F
:1008C00009F482E08093180282E090E09093240281
:1008D0008093230282E990E090931C0280931B0294
:1008E00082E590E090931A028093190210922902F7
:1008F00080916C0180932A021092260210922802A5
:1009000010922702C9CFC017D107A8F41092240271
:100910001092230282E990E090931C0280931B02C4
:1009200082E590E090931A028093190210926C0174
:100930001092260288CF82E090E090932402809368
:10094000230282E990E090931C0280931B0282E5CF
:1009500090E090931A0280931902109229028091DC
:100960006C0180932A0210922602109228021092A3
:10097000270269CF909126029F5F90932602809173
:100980002702880FC017D107E0F080932702983024
:1009900009F0F0CEE0912902E630A9F41092240289
:1009A0001092230282E990E090931C0280931B0234
:1009B00082E590E090931A02809319021092260229
:1009C000D3CE8160E2CF83E090E0909324028093C5
:1009D00023029091270281E08E0F80932902F0E09C
:1009E000ED5DFD4F90878091280289278093280232
:1009F000BBCEC017D10728F5109224021092230213
:100A00001092260282E990E090931C0280931B02D0
:100A100082E590E090931A02809319028091280257
:100A20008111ACCE88E0E9E2F2E0A1E3B2E001900E
:100A30000D928A95E1F781E08093250210926C0176
:100A400093CE80912902863009F4A8CF82E090E00D
:100A50009093240280932302109226021092270280
:100A600083CE10926C01AFCE0895DC011496ED9107
:100A7000FC911597908111968C91809589238083A4
:100A80000895CF93DF93DC01EC91F0E0EE0FFF1FB0
:100A9000E450FE4FC591D491988111968C91982382
:100AA00081E009F480E0DF91CF910895DC01129696
:100AB000ED91FC91139711969C9111978081611192
:100AC0000EC09095982390831496ED91FC91159704
:100AD000908111968C918095892380830895982B1D
:100AE0009083089580910F0290911002891B990BB9
:100AF000089585ED809374008091740084FDFCCF8F
:100B00001092580408952091B101260F3327331F06
:100B100021323105ECF420915804FC0190E080E092
:100B2000243069F082E00895A091B1012191AC01D7
:100B30004F565E4FA40FB52FB11D2C93019686170B
:100B400098F38091B101680F6093B10180E008953E
:100B500081E008950895E091100280910F02E81756
:100B600030F4F0E0EF58FE4F808190E008958FEF71
:100B70009FEF08959091100280910F022FEF3FEFA9
:100B8000981748F4E92FF0E0EF58FE4F208130E04D
:100B90009F5F90931002C9010895CF92DF92EF9268
:100BA000FF920F931F93CF93DF937C01CB018A01B8
:100BB00020915904222389F0EB016B01C40ED51E4C
:100BC000CC15DD0569F06991D701ED91FC9101909B
:100BD000F081E02DC7010995F3CF642F0E948305B2
:100BE000C801DF91CF911F910F91FF90EF90DF909F
:100BF000CF900895CF93DF931F92CDB7DEB769836F
:100C0000209159042223F9F020917C04203258F0DD
:100C100021E030E0FC013383228390E080E00F90FC
:100C2000DF91CF91089580915A04E82FF0E0E55AC2
:100C3000FB4F998190838F5F80935A0480937C044B
:100C400081E090E0ECCF61E0CE0101960E94830547
:100C5000F7CF1F93CF93DF93C8EED1E0188169815E
:100C60008DE794E00E94FA05612F8DE794E00E94E1
:100C7000FA056A818DE794E0DF91CF911F910C9482
:100C8000FA0590E080E0089580E090E0892B29F05B
:100C90008091520283FD0C9400000895009731F179
:100CA0006091390470913A048617970709F06DC076
:100CB00041504A30D8F4E42FF0E0EF59F94F0C944A
:100CC000AD156B067706820692069906A006A70662
:100CD000AE06B506BD0680913E04281739F0209374
:100CE0003E04809138048160809338040895909187
:100CF0003F0480EF820F292B28239217B9F320930A
:100D00003F04EFCF30913F0440E1249FC001112404
:100D1000832B2295207F215F8223381739F380931C
:100D20003F04DFCF80914004281701F32093400453
:100D3000D8CF809141042817C9F220934104D1CF24
:100D400080914204281791F220934204CACF8091E7
:100D50004304281759F220934304C3CF80914404DD
:100D6000281721F220934404BCCF80914504281712
:100D700009F4BCCF20934504B4CF809146042817D2
:100D800009F4B4CF20934604ACCF30913B043F77B5
:100D90003817190609F0AACF4230A1F018F44130F3
:100DA00031F008954330D1F0443049F108958091F5
:100DB0004704281709F49ACF2093470480913804F8
:100DC000826092CF9091480480EF820F292B2823D4
:100DD000921709F48BCF20934804F0CF3091480448
:100DE00040E1249FC0011124832B2295207F215FA5
:100DF0008223381709F47ACF80934804DFCF80919B
:100E00004904281709F472CF20934904D7CF0F93D0
:100E1000009721F16091390470913A048617970781
:100E200029F5822F90E030913C043078231729F087
:100E3000209138042460209338040D3189F00F3755
:100E400079F00F3081F49C013695322F22273795A7
:100E5000279580913C04822B80933C040F91089548
:100E600040933C04F0CF10923C04EDCF30913B0412
:100E70003F773817190691F7822F90E030913D04A3
:100E80003078231729F02091380428602093380403
:100E90009695982F882797958795482B40933D04E2
:100EA000DDCF81508E30D8F4E82FF0E0E65AF84FCD
:100EB0000C94AD1568076A07700772077607780704
:100EC0007E078007840786078A078C0790079207AA
:100ED000A998089580916200877F809362000895A9
:100EE000A8980895809162008B7FF7CF9698089517
:100EF000809165008D7F8093650008951C9808950A
:100F0000809162008F7BE9CF1B98089580916200E9
:100F10008F7DE3CF1A980895809162008F7EDDCF98
:100F2000AA980895809162008D7FD7CF1F93CF93A9
:100F3000DF93EC018A819B8110E0892BE9F48D819C
:100F40009E8110E0892B69F588818E7F8883DF91EF
:100F5000CF911F910895812F90E0880F991FEA810A
:100F6000FB81E80FF91F0190F081E02D80818F77E0
:100F700080830E9451071F5F8981181760F3DFCFBC
:100F8000812F90E0880F991FED81FE81E80FF91FF6
:100F90000190F081E02D80818F7780830E9451073E
:100FA0001F5F8C81181760F3CFCFFC019081957083
:100FB000953019F4CF010C9496070895FC01208117
:100FC00020FF03C022FF0C949607089581508E30B5
:100FD000D8F4E82FF0E0E151F84F0C94AD15FD077F
:100FE000FF07050807080B080D081308150819085E
:100FF0001B081F08210825082708A99A0895809131
:1010000062008860809362000895A89A0895809194
:1010100062008460F7CF969A08958091650082609F
:101020008093650008951C9A089580916200806401
:10103000E9CF1B9A0895809162008062E3CF1A9AEB
:101040000895809162008061DDCFAA9A0895809111
:1010500062008260D7CF90913804882361F090615C
:101060009093380481E00E94E60780918A00887F8F
:1010700080938A0008959F7E9093380481E00E94B7
:101080005107109288001092890080918A00846034
:10109000EFCFCF93C82F80913B028C1719F08C2F84
:1010A0000E942B08C0933B02CC23F9F02FB7F89491
:1010B00080911F0290912002A0912102B091220202
:1010C0002FBF482F392F2A2F8B2F40933C0230936C
:1010D0003D0220933E0280933F0280913B028C1799
:1010E00049F08C2FCF910C942B0840E030E020E0A9
:1010F00080E0EBCFCF9108950F931F93CF938C0196
:10110000C0E0F8018181C81720F0CF911F910F91A5
:1011100008958C2F90E0880F991FD8011296ED91B9
:10112000FC91E80FF91F0190F081E02D8081982F4C
:10113000906890838F770E94E607CF5FE2CF1F937E
:10114000CF93DF93EC01288120FD15C022FF13C04F
:10115000322F3160388321FF09C02A813B81232B44
:1011600051F0DF91CF911F910C947C082D813E812D
:1011700010E0232BB9F4DF91CF911F910895812FB7
:1011800090E0880F991FED81FE81E80FF91F019013
:10119000F081E02D8081982F906890838F770E9456
:1011A000E6071F5F8C81181750F3E5CFCF93DF93CD
:1011B000EC018881982F9270691789F0662369F095
:1011C00082608883888180FF0AC0CE010E94D50793
:1011D000CE01DF91CF910C949F088D7FF2CFDF91EC
:1011E000CF9108951F93CF93DF93EC012881322F85
:1011F000357099F4322F3160388321FF09C02A817C
:101200003B81232B51F0DF91CF911F910C947C08EF
:101210002D813E8110E0232BB9F4DF91CF911F91F6
:101220000895812F90E0880F991FED81FE81E80FCE
:10123000F91F0190F081E02D8081982F90689083B4
:101240008F770E94E6071F5F8C81181750F3E5CF58
:10125000CF93DF93EC018881982F9270691789F002
:10126000662369F082608883888180FF0AC0CE018E
:101270000E94DE07CE01DF91CF910C94F2088D7FA2
:10128000F2CFDF91CF910895E5E6F0E080818160B3
:1012900080838FE79EE30197F1F700C00000808113
:1012A0008E7F808308950C9444091F93CF93DF931E
:1012B000EC018091380484FF0BC08FE090E00E9425
:1012C0008715182F80E190E00E948715181306C03B
:1012D000CE01DF91CF911F910C948715FFCF0C9415
:1012E0005509CF93DF9320914F02309150022F3F49
:1012F000320721F0C901DF91CF9108958091520208
:1013000087FF2BC086FF0FC089E090E00E946F0925
:10131000C82F81E090E00E946F099C2F90935002AB
:1013200080934F0215C089E090E00E946F09C82F9A
:1013300081E090E00E946F0990E4C99F9001112420
:10134000207C31708F73282B3093500220934F02F2
:1013500080914F0290915002CECF85FF0CC081E169
:1013600090E00E946F09C82F82E190E00E946F090F
:10137000C05CDD0BD2CF81E090E00E946F0990E06D
:10138000CDCFCF93863823E0920719F138F4813816
:1013900023E09207D9F0CF910C948715873823E08A
:1013A0009207D1F0883823E09207A9F786E893E006
:1013B0000E948715C82F87E893E00E94871590E068
:1013C0002FEFC29F800D911D1124E5CF81E893E09E
:1013D000E2CF86E893E0DFCF87E893E0DCCF0E949E
:1013E0004908E9E3F2E081E087831086E2E4F2E075
:1013F00088E0DF011D928A95E9F708950F931F9306
:10140000CF93DF93EC01162FC63883E0D80781F124
:1014100050F4C13883E0D807F9F0612FCE010E9463
:101420008F15CE011FC0C73883E0D80741F1C838F7
:1014300083E0D80791F786E893E00E948715082F8C
:1014400087E893E00E948715C82FD0E08FEF089FB0
:10145000C00DD11D1124E1CF81E893E00E948F15CA
:1014600081E893E0DF91CF911F910F910C94871544
:1014700086E893E00E948F1586E893E0F3CF87E833
:1014800093E00E948F1587E893E0ECCFCF93DF9332
:10149000D0E0C0E0FE01E457FF4F6491CE010E940E
:1014A0008F152196C03181E0D807A1F761E081E86E
:1014B00093E00E948F15C0E0CF5F8C2F0E94E6075B
:1014C000CE30D1F7DF91CF9108950C94460A1F9347
:1014D000CF93DF9320911C012223C1F02FEF3FEF28
:1014E0003093D7012093D6013093DB012093DA01AA
:1014F0003093DF012093DE013093E3012093E2017A
:101500003093E7012093E60110921C01823091058F
:10151000C9F08330910509F458C020E030E0232B56
:1015200011F00E94000080910F0290911002891B1F
:10153000990B181619060CF044C08DE794E00E9430
:10154000BA05F1CFE4EDF1E0D0E0C0E08281938113
:101550000196E9F4CC0FDD1FCC0FDD1FCC52DE4F1E
:101560001B821A828DE794E00E94BA0588838DE77A
:1015700094E00E94BA058983E0911D02F0911E0259
:101580003097C9F4D0931E02C0931D021AC0219651
:101590003496C530D105D1F680910F02909110029A
:1015A000891B990B1816190664F48DE794E00E94C4
:1015B000BA05F2CFFC01828193810097D9F7D383DA
:1015C000C283DF91CF911F9108958DE794E00E942F
:1015D000BA05182F8DE794E00E94BA05D12F90E04C
:1015E000C92FC80FD11DD093E901C093E8018DE741
:1015F00094E00E94BA05682F8093EA01CE01D7FFDC
:1016000021C09F779093E9018093E801883091058C
:1016100061F0843823E0920741F08C3A23E092078E
:1016200021F0843D23E0920741F481E8683039F4E9
:10163000DF91CF911F910C94460A0E94FE0980937E
:10164000EA01BFCF0E94C109FACF1F93CF93DF9366
:10165000EC01162F089779F4662319F10E94460AC7
:1016600080E090E0892BB9F0612FCE01DF91CF911E
:101670001F910C94000080E090E0892BA9F781E095
:10168000C11590E1D90708F080E0111105C0DF9184
:10169000CF911F91089581E027972297C0F780E0AE
:1016A000F6CF80E090E0892BF9F681E0F0CF0F9340
:1016B0001F93CF93DF93EC01162F8091380484FFA2
:1016C00025C0CF30D10561F48FE090E00E948F15E6
:1016D0008FE090E0DF91CF911F910F910C948715CF
:1016E0008FE090E00E948715082F80E190E00E9433
:1016F000871508130AC0C730D10531F0C830D105AD
:1017000029F4183049F0FFCFFFCFFFCF612FCE0172
:101710000E948F15CE01DECF0E94460A88E0DF913D
:10172000CF911F910F9108958331910588F48131F4
:10173000910530F48130910519F08930910531F42B
:101740002FEF3FEF3093500220934F020C94570B32
:101750008D319105D9F7677F60935202209139024C
:101760002F73362F307C232B20933902E9CFBF9281
:10177000CF92DF92EF92FF920F931F93CF93DF935D
:101780008B01B42E690182FF23C083FF17C061E083
:10179000C8010E94250B8823D9F16B2DC8010E9436
:1017A000940B8B1135C0F601DF91CF911F910F91F2
:1017B000FF90EF90DF90CF90BF90099460E0C80158
:1017C0000E94250B882321F1C8010E946F09E9CFEF
:1017D000842F8770C1E0D0E07E0101C0EE0C8A95B5
:1017E000EAF7D42FD870CB010E946F09C82FB4FE3E
:1017F0001CC061E0C8010E94250B882349F0DD234D
:1018000089F0CE296C2FC8010E94940B8C1759F2D5
:10181000DF91CF911F910F91FF90EF90DF90CF90CC
:10182000BF900895E094CE21EDCF60E0C8010E9402
:10183000250B882369F3CE21DD2319F0C111B3CF25
:10184000E7CFCC2309F4AFCFE3CFAF92BF92DF92C3
:10185000EF92FF920F931F93CF93DF937C01162F8C
:10186000C42FD22ED42FD07E8091390287FF2CC076
:10187000D03EC1F5A0903A02AA20A1F1B12CC50139
:101880000E946F09D82FC50101960E946F09982FF9
:101890008D2FE816F90631F56C2F70E0762F66274C
:1018A000662773706D296F5F7F4F24E436E0402F09
:1018B0008C2FDF91CF911F910F91FF90EF90DF90D0
:1018C000BF90AF900C94B70B80FD33C0D03609F4B5
:1018D00064C090F4D03209F449C0D03409F45DC03A
:1018E000DD2381F1DF91CF911F910F91FF90EF9058
:1018F000DF90BF90AF900895D03A09F484C090F47F
:101900002C2F2F7141E0D03869F7612FC701DF918B
:10191000CF911F910F91FF90EF90DF90BF90AF900C
:101920000C944E06D03C09F475C0D03E09F4B4CFF7
:10193000D9CF0E9471098E159F0541F2E114F1047F
:1019400029F2D0CF8C2F8E7069F680E090E0892B41
:1019500049F28C2F8170DF91CF911F910F91FF90F1
:10196000EF90DF90BF90AF900C940000CF71CF311B
:1019700009F0B8CF4D2D4F7761F0413061F02D2D3A
:10198000221F2227221F0DE1612FC7010E94070796
:10199000A9CF41E0F4CF40E0F2CF2C2F30E08C2FE4
:1019A0008F71813029F030F0803121F0813109F5DB
:1019B00040E001C041E095E0359527959A95E1F723
:1019C00021700DE1612FC7010E94070780E090E0C0
:1019D000892B09F487CF4C2F612FC701DF91CF915D
:1019E0001F910F91FF90EF90DF90BF90AF900C94FC
:1019F0000000C901880F991F8E71C4FB442740F96C
:101A0000482B4250D8CF2C2F2F7043E0C4FF7DCFFE
:101A100042E07BCFCF71CE3131F0CF3109F062CFD0
:101A20002D2D45E072CF2D2D44E06FCF4F925F9268
:101A30006F927F928F929F92AF92BF92CF92DF92DE
:101A4000EF92FF920F931F93CF93DF93C0911502F4
:101A5000D09116028091FE01811116C02FB7F89423
:101A600080911F0290912002A0912102B091220248
:101A70002FBF8093FA019093FB01A093FC01B093D8
:101A8000FD0181E08093FE018091F201811111C07E
:101A90000E94CF0264517109810991096093EE019E
:101AA0007093EF018093F0019093F10181E08093B6
:101AB000F2010E94CF022B013C018FB7F894C09035
:101AC0001F02D0902002E0902102F09022028FBFEE
:101AD0008091FA01BC2CB81A8091EE019091EF012F
:101AE0009201281B390BC9012091ED01211169C018
:101AF000FE0130E020E045815681C417D50709F08A
:101B000056C045E0429F8001439F100D11240E5F97
:101B10001F4F0C0F1D1F1093EC010093EB010115DB
:101B2000110509F458C0F80114821382843191051B
:101B300008F496C1853F914008F0B8C18D8D9E8D07
:101B40000E944105F801808381E08093ED0140927D
:101B5000EE015092EF016092F0017092F101F6E017
:101B6000FB1508F481C18D8D9E8D0E944105A090CA
:101B7000EB01B090EC019091ED01E92FE695E6952F
:101B8000E695292F277041E050E060E070E004C046
:101B9000440F551F661F771F2A95D2F7EA0DFB2DBC
:101BA000F11D811129C040958081482327C02F5FF6
:101BB0003F4F35962530310509F09DCF10E000E00C
:101BC000AACF26E02B1508F44FC18431910518F0F7
:101BD000853F914040F2DF91CF911F910F91FF908F
:101BE000EF90DF90CF90BF90AF909F908F907F90BD
:101BF0006F905F904F9008958081482B408381E0E3
:101C0000890F8093ED014092EE015092EF016092B6
:101C1000F0017092F101982F9770E9F68031E9F4A4
:101C2000F5018081863780F4EB8DFC8D309721F4AF
:101C3000BC8EAB8E07C0FC01838194810097D9F7DD
:101C4000B482A3821092ED01C092FA01D092FB01FE
:101C5000E092FC01F092FD01BECF8831A9F7F501B9
:101C600011811F778DEF782E710EF7E2F71580F056
:101C700088818130A1F4812E912C1B3261F118F5FD
:101C8000133049F1143029F1111152C0888124C058
:101C900085ED810F883250F48881823061F3E091C4
:101CA000EB01F091EC01D483C383CCCF8DEA810F9B
:101CB000883220F48881833091F7DDCF8EEF810F59
:101CC0008230C8F6ECCF133531F0143511F01C32E8
:101CD00079F58AE001C08DE0F501028190819B37A2
:101CE00069F19F3709F472C09737C9F60813D7CF47
:101CF00061E08D8D9E8D0E9456058D8D9E8D0E947A
:101D000035058FE697E10197F1F700C00000AD8D32
:101D1000BE8D1496ED91FC911597808111969C9142
:101D2000892B808360E08D8D9E8D0E945605B7CFF4
:101D3000C4018F579C4F0E94C109CECF202F28701D
:101D4000302F377004FF35C01D3278F51B3208F094
:101D5000A6CF91E0971508F0A2CF41E050E060E0F7
:101D600070E004C0440F551F661F771F3A95D2F7E5
:101D7000182F142B211103C0142F10951823612F35
:101D8000C4018F579C4F0E94FE09181388CF61E051
:101D90008D8D9E8D0E9456058D8D9E8D0E943505E0
:101DA000EFE6F7E13197F1F7B0CF13551230A8F60F
:101DB00076CF90E002C0959587953A95E2F78170CD
:101DC00099272817190609F06ACF92CF1B32D9F14B
:101DD00090F51330C1F1143009F461CF602FC401C4
:101DE0008F579C4F0E94FE0908131FC061E08D8D24
:101DF0009E8D0E9456058D8D9E8D0E9435058FE625
:101E000097E10197F1F700C00000AD8DBE8D1496EB
:101E1000ED91FC911597808111969C91892B80837F
:101E200060E08D8D9E8D0E945605111138CF0430D3
:101E300078F4088334CF133531F0143509F42FCFFB
:101E40001C3261F62CCF083081F70E94460A9FCFE2
:101E500061E081E893E00E94FE0981E088831FCF62
:101E6000F6E0FB1508F0B7CE99E09B1508F0B3CE6D
:101E7000C092FA01D092FB01E092FC01F092FD01C8
:101E80000091EB011091EC018D8D9E8D0E9441051A
:101E9000F801808381E08093ED014092EE01509241
:101EA000EF016092F0017092F10195CE26E02B15C2
:101EB000D8F291CE9F92AF92BF92CF92DF92EF92E3
:101EC000FF920F931F93CF93DF937C016B01942EAE
:101ED00081E0F701481328C0A280B380E701219672
:101EE000A114B10431F562E070E081E090E00E945D
:101EF000B6158C01009731F0FC01D182C082888137
:101F00008F5F8883F1E09F1242C0F7011383028341
:101F1000DF91CF911F910F91FF90EF90DF90CF90C5
:101F2000BF90AF909F900895A580B680E70124965A
:101F3000D7CF88818F5F8883C82FD0E062E070E0C0
:101F4000CE010E94B6158C0120E0AE01415051092E
:101F5000822F90E08417950764F0C150D048CC0FD1
:101F6000DD1FC00FD11FD982C882C5010E946E1625
:101F7000C9CF880F991FF501E80FF91F60817181A2
:101F8000800F911FFC01718360832F5FE1CFF70108
:101F900016830583BDCF1F920F920FB60F921124A7
:101FA0002F933F938F939F93AF93BF9380911F0283
:101FB00090912002A0912102B0912202309106025C
:101FC00023E0230F2D3768F126E8230F0296A11D89
:101FD000B11D2093060280931F0290932002A093CC
:101FE0002102B09322028091070290910802A091F1
:101FF0000902B0910A020196A11DB11D809307024A
:1020000090930802A0930902B0930A02BF91AF9186
:102010009F918F913F912F910F900FBE0F901F9026
:1020200018950196A11DB11DD4CF1F920F920FB626
:102030000F9211240BB60F922F933F934F935F9300
:102040006F937F938F939F93AF93BF93EF93FF9380
:10205000E0912B01F0912C010995FF91EF91BF9137
:10206000AF919F918F917F916F915F914F913F9130
:102070002F910F900BBE0F900FBE0F901F901895D1
:102080001F920F920FB60F9211240BB60F922F933F
:102090003F934F935F936F937F938F939F93AF93F0
:1020A000BF93EF93FF93E0912901F0912A010995E5
:1020B000FF91EF91BF91AF919F918F917F916F9120
:1020C0005F914F913F912F910F900BBE0F900FBEDC
:1020D0000F901F9018951F920F920FB60F92112418
:1020E0000BB60F922F933F934F935F936F937F9312
:1020F0008F939F93AF93BF93EF93FF93E09127014B
:10210000F09128010995FF91EF91BF91AF919F91B7
:102110008F917F916F915F914F913F912F910F9090
:102120000BBE0F900FBE0F901F9018951F920F922D
:102130000FB60F9211240BB60F922F933F934F932C
:102140005F936F937F938F939F93AF93BF93EF931F
:10215000FF93E0912501F09126010995FF91EF9100
:10216000BF91AF919F918F917F916F915F914F91AF
:102170003F912F910F900BBE0F900FBE0F901F90AD
:1021800018951F920F920FB60F9211240BB60F9253
:102190002F933F934F935F936F937F938F939F936F
:1021A000AF93BF93EF93FF93E0912301F09124014C
:1021B0000995FF91EF91BF91AF919F918F917F9181
:1021C0006F915F914F913F912F910F900BBE0F90A8
:1021D0000FBE0F901F9018951F920F920FB60F927F
:1021E00011240BB60F922F933F934F935F936F93EE
:1021F0007F938F939F93AF93BF93EF93FF93E09160
:102200002101F09122010995FF91EF91BF91AF91CA
:102210009F918F917F916F915F914F913F912F91FE
:102220000F900BBE0F900FBE0F901F9018951F922E
:102230000F920FB60F9211240BB60F922F933F936C
:102240004F935F936F937F938F939F93AF93BF93BE
:10225000EF93FF93E0911F01F09120010995FF9109
:10226000EF91BF91AF919F918F917F916F915F910E
:102270004F913F912F910F900BBE0F900FBE0F907B
:102280001F9018951F920F920FB60F9211240BB644
:102290000F922F933F934F935F936F937F938F93FF
:1022A0009F93AF93BF93EF93FF93E0911D01F09144
:1022B0001E010995FF91EF91BF91AF919F918F9171
:1022C0007F916F915F914F913F912F910F900BBE36
:1022D0000F900FBE0F901F9018951F920F920FB680
:1022E0000F9211240BB60F922F933F934F935F934E
:1022F0006F937F938F939F93AF93BF93EF93FF93CE
:1023000080917100887F803609F44DC008F040C08C
:10231000883209F4A9C028F5803109F49DC0C8F4B9
:10232000882309F407C1883009F496C0FF91EF9122
:10233000BF91AF919F918F917F916F915F914F91DD
:102340003F912F910F900BBE0F900FBE0F901F90DB
:102350001895883109F488C0803241F7809356047B
:1023600014C0803409F4A5C040F48033B9F3883335
:10237000E9F68093560485ECBCC0803509F489C029
:10238000883509F49EC0883489F60E947905CECF3D
:10239000883909F494C038F5883729F050F4883624
:1023A00011F0803719F683E0809358041092D3011E
:1023B00057C0883809F483C0803919F0803809F093
:1023C000B5CF8091D301803208F079C0E091D3017C
:1023D00081E08E0F8093D30180917300F0E0ED5483
:1023E000FE4F80833DC0803B39F0E0F4803A09F431
:1023F00085C0883A09F09ACF84E0809358041092FF
:10240000B2011092B101E0910D02F0910E02099516
:102410008091B10181110FC081E08093B1011092D0
:10242000910109C0803C09F4A6CF883C09F4A3CFF0
:10243000883B09F07BCFE091B20181E08E0F809361
:10244000B201F0E0EF56FE4F8081809373009091CF
:10245000B2018091B10131C0809151048093730029
:1024600085EC8093740062CF909153048091520464
:102470009817B8F58091540490915504E091530455
:1024800021E02E0F20935304E80FF92FF11D8081D6
:10249000E5CF2091540430915504E091530481E03C
:1024A0008E0F8093530480917300E20FF32FF11D80
:1024B00080839091530480915204981788F285E8A4
:1024C000D0CF2091540430915504E091530481E021
:1024D0008E0F8093530480917300E20FF32FF11D50
:1024E000808380915704811150CF81E08093500404
:1024F00084EA809374001092580418CF85EC80937E
:102500007400109258048091D301803230F4E0912D
:10251000D301F0E0ED54FE4F10826091D30170E0E2
:10252000E0910B02F0910C0283EB91E0099510927F
:10253000D301FCCE1092560428CF1F920F920FB6F3
:102540000F9211240BB60F92EF92FF920F931F93ED
:102550002F933F934F935F936F937F938F939F93AB
:10256000AF93BF93CF93DF93EF93FF930FB6F8949E
:10257000A89581B5886181BD11BC0FBE789485B7DF
:102580008F7D85BF10926B01C1E0D1E0D0935904DB
:10259000C0937B0410925A0410927C040E948B0119
:1025A000811105C080916B018F5F80936B01CF5FBC
:1025B000CF3761F78091690190916A01009731F0FE
:1025C0000E946E1610926A0110926901D0916B01FF
:1025D000DD2371F161E070E08D2F90E00E94B6156F
:1025E0007C0190936A018093690110E0C1E001E0F1
:1025F00000935904C0937B0410925A0410927C04F7
:102600000E948B01811105C0F701E10FF11DC0830C
:102610001F5FCF5FCF3761F7D23050F080918A00D3
:10262000887F80938A0080917D008B7F80937D00DE
:10263000109288001092890085B7806285BFFF9153
:10264000EF91DF91CF91BF91AF919F918F917F914A
:102650006F915F914F913F912F911F910F91FF903B
:10266000EF900F900BBE0F900FBE0F901F9018951C
:102670001F920F920FB60F9211240BB60F922F9349
:102680003F934F935F936F937F938F939F93AF93FA
:10269000BF93CF93DF93EF93FF937894C3E3D1E09D
:1026A000E991F991808187FF08C08F7720916801B7
:1026B0009181921720F10E94E60781E0CF34D8077C
:1026C00079F786E984BD809168018F5F8032D1F00F
:1026D00080936801FF91EF91DF91CF91BF91AF910E
:1026E0009F918F917F916F915F914F913F912F912A
:1026F0000F900BBE0F900FBE0F901F9018950E9469
:102700005107DBCF10926801E5CFEDE7F4E01382CB
:10271000128288EE93E0A0E0B0E084839583A683E4
:10272000B78383E591E0918380830895789483B79C
:102730008C6483BF87B7816087BFC2E0CEBD8EB592
:1027400081608EBD8FB581608FBD85B5846085BD8C
:1027500085B5806485BD80918A00836080938A00FE
:1027600080918B00816080938B0087E886B91AB8CE
:102770000FB6F894A89581B5886181BD11BC0FBED4
:102780001ABA17BA14BA11BA12B81092610010929C
:10279000640061E081E00E94930281E00E94E30115
:1027A0001092100210920F0210925A0410927C04A0
:1027B0001092580481E0809357041092500483E1F2
:1027C0000E94E30182E10E94E301809171008C7F0D
:1027D0008093710088E48093700085E48093740096
:1027E0008DE592E090930E0280930D0289E692E0CF
:1027F00090930C0280930B02C09372008CE0809344
:10280000700087E69AE0909312028093110289E2A9
:1028100096E09093140280931302A19A8091610034
:10282000886080936100A09A8091610084608093A9
:1028300061008E9A80916400826080936400149A93
:1028400080916100806480936100139A809161009F
:10285000806280936100129A809161008061809310
:102860006100A29A809161008260809361008091F2
:102870006400816080936400D0E0C0E0FE01E45712
:10288000FF4F6491CE010E948F152196C03121E047
:10289000D207A1F761E081E893E00E948F15C0E0C4
:1028A000CF5F8C2F0E94E607CE30D1F78DE190E00C
:1028B0000E948715809336048CE190E00E94871572
:1028C000809337048DE190E00E94871585FF03C156
:1028D00081E190E00E9487158F73C82FD0E0DC2F34
:1028E000CC2782E190E00E948715C82BD0933A0450
:1028F000C093390483E190E00E94871580933B04E4
:1029000080E880933C0480933D048CE9A82E81E00C
:10291000B82E93E3E92E91E0F92E670127E0922E7D
:10292000F50105911491C8010E948715C82FC801AF
:1029300001960E948715D82F0E5F1F4FC8010E9475
:102940008715803228F06FE1C8010E94A0158FE141
:10295000D6010D911D916D01F8018183D03809F4E4
:10296000C9C0D13809F4CEC0D1110FC0C99DE00152
:102970001124CD5ADD4F41E0B801CE010E945A0F1B
:1029800040E0B801CE010E945A0FF2E0AF0EB11C38
:102990002FE4C21621E0D20609F0C2CF85E190E013
:1029A0000E94871580FF05C090915A029460909311
:1029B0005A0281FF05C09091610294609093610278
:1029C00082FF05C09091680294609093680283FF33
:1029D00005C090916F02946090936F0284FF05C0D0
:1029E0009091760294609093760285FF05C0909155
:1029F0007D02946090937D0286FF05C090918402D1
:102A000094609093840287FF05C080918B0284605C
:102A100080938B0286E190E00E94871580FF05C0BD
:102A20009091530294609093530282FF05C090915D
:102A3000920294609093920283FF05C09091990254
:102A400094609093990284FF05C09091A0029460D5
:102A50009093A00285FF05C09091A7029460909387
:102A6000A70286FF05C09091AE0294609093AE02DB
:102A700087FF05C08091B50284608093B502D701BD
:102A8000ED91FD917D0180818F7780830E945107B8
:102A9000BFE4EB16B1E0FB0691F706E314E0C3E5F3
:102AA000D2E0CE010E94F208CE010E949F08EFEF13
:102AB000F3ED20E3E150F0402040E1F700C00000DA
:102AC000CE010E94DE07CE010E94D50727960C1783
:102AD0001D0739F7E4CF81E090E00E9487151816B2
:102AE00034F063E081E090E00E948F1583E0C82F0E
:102AF000D0E0FCCEC99DC001112440E0B8018D5A40
:102B00009D4F41CFC99DC001112441E0F7CFE1990C
:102B1000FECF9FBB8EBBE09A99278DB30895262FD9
:102B2000E199FECF9FBB8EBBE09A01970DB20216D2
:102B300031F02DBB0FB6F894E29AE19A0FBE0895DA
:102B4000262FE199FECF9FBB8EBB2DBB0FB6F8940D
:102B5000E29AE19A0FBE01960895EE0FFF1F00243E
:102B6000001C0BBE0790F691E02D09940F931F9364
:102B7000CF93DF93869F8001879F100D969F100D46
:102B80001124C8010E94D215EC01009729F0A80178
:102B900070E060E00E94F716CE01DF91CF911F91A7
:102BA0000F9108950F931F93CF93DF938230910578
:102BB00010F482E090E0E0918B04F0918C0430E01E
:102BC00020E0B0E0A0E0309799F42115310509F438
:102BD0004AC0281B390B24303105D8F58A819B81E6
:102BE0006115710589F1FB0193838283FE0111C098
:102BF000408151810281138148175907E0F048173D
:102C0000590799F4109761F012960C931297139646
:102C10001C933296CF01DF91CF911F910F910895B0
:102C200000938B0410938C04F4CF2115310551F0DF
:102C30004217530738F0A901DB019A01BD01DF01FA
:102C4000F801C1CFEF01F9CF90938C0480938B04EE
:102C5000CDCFFE01E20FF31F8193919322503109F2
:102C600039832883D7CF2091890430918A04232B7C
:102C700041F420912F013091300130938A04209348
:102C8000890420912D0130912E012115310541F447
:102C90002DB73EB74091310150913201241B350BC5
:102CA000E0918904F0918A04E217F307A0F42E1B47
:102CB0003F0B2817390778F0AC014E5F5F4F2417A0
:102CC000350748F04E0F5F1F50938A0440938904E4
:102CD000819391939FCFF0E0E0E09CCFCF93DF937F
:102CE0000097E9F0FC01329713821282A0918B04C5
:102CF000B0918C04ED0130E020E01097A1F4208128
:102D00003181820F931F2091890430918A04281702
:102D1000390709F061C0F0938A04E0938904DF91D8
:102D2000CF910895EA01CE17DF07E8F54A815B816C
:102D30009E0141155105B1F7E901FB83EA834991F1
:102D40005991C40FD51FEC17FD0761F48081918163
:102D50000296840F951FE90199838883828193816C
:102D60009B838A83F0E0E0E012968D919C9113970B
:102D70000097B9F52D913C911197CD010296820FE4
:102D8000931F2091890430918A042817390739F656
:102D9000309751F510928C0410928B04B0938A04F2
:102DA000A0938904BCCFD383C28340815181840F17
:102DB000951FC817D90761F44E5F5F4F88819981CD
:102DC000480F591F518340838A819B81938382835B
:102DD0002115310509F0B0CFF0938C04E0938B04FA
:102DE0009ECFFD01DC01C0CF13821282D7CFDC0160
:102DF00001C06D9341505040E0F70895F894FFCF23
:102E00000EFF0DFF0CFF0BFF0AFF09FF08FF07FF76
:102E100006FF05FF04FF03FF02FF01FF0134050069
:102E20000000000000000000000000000000008D15
:102E30000480001A01180116011401120110010E7C
:102E4000010C010A01080106010401020100010050
:102E5000000000FA05CD054106AA057205BA05ABCA
:022E600005006B
:00000001FF
