:100000000C945F010C9442110C9417110C94EC1099
:100010000C94C1100C9496100C946B100C9440101E
:100020000C9415100C9489010C9438130C948901CC
:100030000C9489010C9489010C9489010C94890118
:100040000C94CB0F0C9489010C9489010C948901B8
:100050000C9489010C9489010C9489010C948901F8
:100060000C9489010C9489010C9489010C948901E8
:100070000C9489010C949D120C9489010C948901B3
:100080000C9489010C946D110C94890142030000B9
:10009000000000120D0000000000000101C08000FF
:1000A000000000000000000000060000000000004A
:1000B0000000000000000000000000000000000040
:1000C0000000000000003F000000000000000000F1
:1000D0000000000000000000000000000000000020
:1000E0000000000000000000000000000000000010
:1000F00000000000000000000000000002001400EA
:100100000300140004001400050014000100100096
:10011000010010000100100001001000010010009B
:1001200001001000010010000100100000801F00FD
:1001300000811F00FF000000FF000000FF00000022
:10014000FF000000FF000000FF000000FF000000B3
:10015000FF000000FF000000FF000000FF000000A3
:10016000FF000000FF000000FF000000FF00000093
:10017000FF000000FF000000FF000000FF00000083
:10018000FF000000FF000000FF000000FF00000073
:10019000FF000000FF000000FF000000700074007E
:1001A00078007C008000840088008C00900094001F
:1001B00098009C00A000A400A800AC00B000B4000F
:1001C000B800BC00C000C400C800CC00D000D400FF
:1001D000D800DC00E000E400E800EC00F000F400EF
:1001E000F800FC000001040108010C0100003A00C5
:1001F0003700340031002200610064000000390043
:1002000036003300300021002000630000003B0076
:100210003800350032002300620065000505050541
:100220000505050502020202020202020707040494
:100230000404040404040707030303030303030380
:100240000701010101010101010606060606060675
:10025000060102040810204080010204081020401A
:1002600080081001020408102040800102010204ED
:100270000810204080048040201008040201010280
:100280000408102040800000000A0B0C0000000051
:10029000000001040506000000000000000000004E
:1002A000000000000000000000000000000000004E
:1002B0000000000000000000000000008513112471
:1002C0001FBECFEFD0E1DEBFCDBF11E0A0E0B1E0B7
:1002D000E0E8F0E400E00BBF02C007900D92A23608
:1002E000B107D9F724E0A2E6B1E001C01D92A73919
:1002F000B207E1F711E0CFE5D1E004C02197FE019C
:100300000E94CC1ECE35D107C9F70E9496130C94DB
:100310003E200C94000090917E0481E0913208F020
:1003200043C080915A048111FCCF80917D0422E06A
:1003300020935A0421E0209359042FEF209358046E
:100340002DE534E030935704209356041092550461
:10035000909354041092530490915304880F892B66
:100360008093530480915204813029F510925204F5
:1003700080915304809373008091740083FDF8CFC3
:1003800085EC8093740080915A048230E1F380916F
:1003900058048F3F91F080915804803281F0809111
:1003A0005804803371F084E010925C0410927E0453
:1003B00010925B04089585EEE4CF80E0F5CF82E0F3
:1003C000F3CF83E0F1CF90E0FC01EA57FD4F249199
:1003D000FC01EF5AFD4F3491845E9D4FFC018491E6
:1003E000882341F12223C1F021502C30A8F4E22FC0
:1003F000F0E0E350FE4F0C94CC1E330233020C02AB
:1004000009021B021E0221020C020C0225022B0211
:100410002F029FB59F779FBDE82FF0E0EE0FFF1FE3
:10042000E45FFD4FA591B4918FB7F894EC913E2B0A
:100430003C938FBF08959FB59F7DEDCF9FB5977F6C
:10044000EACF95B59F7D95BDE7CF90918B009F77C3
:1004500090938B00E1CF90918B009F7DF9CF90918D
:100460008B00977FF5CF93B79F7D93BFD5CFE82FB4
:10047000F0E0EA5CFB4F8085861739F06087618B7E
:10048000809138048360809338040895262F30E0EB
:1004900090913C049078691729F0909138049C6001
:1004A000909338043695322F222737952795822B43
:1004B00080933C0480933D040895E0911302F091F1
:1004C0001402309729F010925C0410927E04099473
:1004D0000895CF93DF93AC01E0911102F0911202E5
:1004E0003097F1F09091100280910F029817C0F0B0
:1004F00090E0292F30E02617370754F4D901AF5880
:10050000BE4F240F351FE90128812C939F5FF1CF47
:100510001092100260930F02CB01DF91CF910994EA
:10052000DF91CF910895CF93DF9390E0FC01EF5AD4
:10053000FD4F2491845E9D4FFC0184918823C9F076
:1005400090E0880F991FFC01E451FE4FA591B491F2
:10055000FC01E45FFD4FC591D49161110DC09FB7BF
:10056000F8948C91209582238C938881282328836A
:100570009FBFDF91CF910895623051F49FB7F894F7
:100580003C91822F809583238C93E8812E2BEFCF93
:100590008FB7F894EC912E2B2C938FBFEACF3FB7F7
:1005A000F8948091070290910802A0910902B091FD
:1005B0000A0222B706B600FE05C02F3F19F00196C9
:1005C000A11DB11D3FBFBA2FA92F982F8827BC01AD
:1005D000CD01620F711D811D911D42E0660F771FD5
:1005E000881F991F4A95D1F70895883008F5E82F9C
:1005F000F0E0EE0FFF1FE35EFE4F718360838150DA
:10060000873068F4E82FF0E0E85FFC4F0C94CC1ED4
:100610001903260334034203490354036003809102
:100620006A008C7F482B40936A0089B7816089BF3C
:10063000089580916A00837F440F551F440F551F12
:10064000482B40936A0089B78260F1CF80916A009D
:100650008F7C74E0440F551F7A95E1F7482B409347
:100660006A0089B78460E3CF80916A008F7366E087
:10067000440F551F6A95E1F7482B40936A0089B7EC
:100680008860D5CF8AB78C7F482B4ABF89B78061F5
:10069000CECF8AB7837F440F551F440F551F482B79
:1006A0004ABF89B78062C3CF8AB78F7C24E0440FEA
:1006B000551F2A95E1F7482B4ABF89B78064B7CF09
:1006C0008AB78F7396E0440F551F9A95E1F7482B30
:1006D0004ABF89B78068ABCFFF920F931F93CF9328
:1006E000DF930E94CF0220916F0130917001EB01E6
:1006F000C21BD30B2091190230911A02C217D307E3
:1007000008F461C040912302509124024130510508
:1007100061F0E0914C02F0914D02208130914E0247
:1007200023233091170223134EC0709370016093FE
:100730006F0100911B0210911C024230510509F417
:1007400019C14330510509F454C14130510561F4D8
:1007500080916E01813009F449C0D8F1833009F4E9
:1007600086C0843009F4CFC0809123029091240286
:10077000019749F1C017D10708F073C180916C014E
:100780008F5F80936C018B30F0F081E090E090936C
:1007900024028093230241E050E06CE673E08091F4
:1007A0004A020E94F5021092170210926E0182E531
:1007B00090E090931C0280931B0283E290E0909360
:1007C0001A0280931902DF91CF911F910F91FF9030
:1007D0000895C017D10730F481E080936E01C09373
:1007E0006D01C2CF84E080936E01BECFC017D107E8
:1007F000E0F510926E0180916C018F5F80936C0127
:1008000020916D018C2F0C2E000C990B821B9109ED
:1008100027FD939597FF03C091958195910949977D
:1008200094F2109224021092230282E990E09093B5
:100830001C0280931B0282E590E090931A02809341
:10084000190210926C01F09018024F2D50E06CE6E6
:1008500073E080914A020E94F50280914E0293E07B
:10086000F91229C0809317027FCF83E0BCCFC01755
:10087000D10718F5109224021092230282E990E029
:1008800090931C0280931B0282E590E090931A02E1
:100890008093190210926C01F09018024F2D50E0D5
:1008A0006CE673E080914A020E94F50280914E024C
:1008B00033E0F316B9F280E0D5CF9091180293306F
:1008C00009F482E08093180282E090E09093240281
:1008D0008093230282E990E090931C0280931B0294
:1008E00082E590E090931A028093190210922902F7
:1008F00080916C0180932A021092260210922802A5
:1009000010922702C9CFC017D107A8F41092240271
:100910001092230282E990E090931C0280931B02C4
:1009200082E590E090931A028093190210926C0174
:100930001092260288CF82E090E090932402809368
:10094000230282E990E090931C0280931B0282E5CF
:1009500090E090931A0280931902109229028091DC
:100960006C0180932A0210922602109228021092A3
:10097000270269CF909126029F5F90932602809173
:100980002702880FC017D107E0F080932702983024
:1009900009F0F0CEE0912902E630A9F41092240289
:1009A0001092230282E990E090931C0280931B0234
:1009B00082E590E090931A02809319021092260229
:1009C000D3CE8160E2CF83E090E0909324028093C5
:1009D00023029091270281E08E0F80932902F0E09C
:1009E000ED5DFD4F90878091280289278093280232
:1009F000BBCEC017D10728F5109224021092230213
:100A00001092260282E990E090931C0280931B02D0
:100A100082E590E090931A02809319028091280257
:100A20008111ACCE88E0E9E2F2E0A1E3B2E001900E
:100A30000D928A95E1F781E08093250210926C0176
:100A400093CE80912902863009F4A8CF82E090E00D
:100A50009093240280932302109226021092270280
:100A600083CE10926C01AFCE0895DC011496ED9107
:100A7000FC911597908111968C91809589238083A4
:100A80000895CF93DF93DC01EC91F0E0EE0FFF1FB0
:100A9000E450FE4FC591D491988111968C91982382
:100AA00081E009F480E0DF91CF910895DC01129696
:100AB000ED91FC91139711969C9111978081611192
:100AC0000EC09095982390831496ED91FC91159704
:100AD000908111968C918095892380830895982B1D
:100AE0009083089580910F0290911002891B990BB9
:100AF000089585ED809374008091740084FDFCCF8F
:100B000010925A0408952091B101260F3327331F04
:100B100021323105ECF420915A04FC0190E080E090
:100B2000243069F082E00895A091B1012191AC01D7
:100B30004F565E4FA40FB52FB11D2C93019686170B
:100B400098F38091B101680F6093B10180E008953E
:100B500081E008950895E091100280910F02E81756
:100B600030F4F0E0EF58FE4F808190E008958FEF71
:100B70009FEF08959091100280910F022FEF3FEFA9
:100B8000981748F4E92FF0E0EF58FE4F208130E04D
:100B90009F5F90931002C9010895CF92DF92EF9268
:100BA000FF920F931F93CF93DF937C01CB018A01B8
:100BB00020915B04222389F0EB016B01C40ED51E4A
:100BC000CC15DD0569F06991D701ED91FC9101909B
:100BD000F081E02DC7010995F3CF642F0E948305B2
:100BE000C801DF91CF911F910F91FF90EF90DF909F
:100BF000CF900895CF93DF931F92CDB7DEB769836F
:100C000020915B042223F9F020917E04203258F0D9
:100C100021E030E0FC013383228390E080E00F90FC
:100C2000DF91CF91089580915C04E82FF0E0E35AC2
:100C3000FB4F998190838F5F80935C0480937E0447
:100C400081E090E0ECCF61E0CE0101960E94830547
:100C5000F7CF1F93CF93DF93C8EED1E0188169815E
:100C60008FE794E00E94FA05612F8FE794E00E94DD
:100C7000FA056A818FE794E0DF91CF911F910C9480
:100C8000FA0590E080E0089580E090E0892B29F05B
:100C90008091520283FD0C9400000895009731F179
:100CA0006091390470913A048617970709F06DC076
:100CB00041504A30D8F4E42FF0E0EF59F94F0C944A
:100CC000CC1E6B067706820692069906A006A7063A
:100CD000AE06B506BD0680913E04281739F0209374
:100CE0003E04809138048160809338040895909187
:100CF0003F0480EF820F292B28239217B9F320930A
:100D00003F04EFCF30913F0440E1249FC001112404
:100D1000832B2295207F215F8223381739F380931C
:100D20003F04DFCF80914004281701F32093400453
:100D3000D8CF809141042817C9F220934104D1CF24
:100D400080914204281791F220934204CACF8091E7
:100D50004304281759F220934304C3CF80914404DD
:100D6000281721F220934404BCCF80914504281712
:100D700009F4BCCF20934504B4CF809146042817D2
:100D800009F4B4CF20934604ACCF30913B043F77B5
:100D90003817190609F0AACF4230A1F018F44130F3
:100DA00031F008954330D1F0443049F108958091F5
:100DB0004704281709F49ACF2093470480913804F8
:100DC000826092CF9091480480EF820F292B2823D4
:100DD000921709F48BCF20934804F0CF3091480448
:100DE00040E1249FC0011124832B2295207F215FA5
:100DF0008223381709F47ACF80934804DFCF80919B
:100E00004904281709F472CF20934904D7CF0F93D0
:100E1000009721F16091390470913A048617970781
:100E200029F5822F90E030913C043078231729F087
:100E3000209138042460209338040D3189F00F3755
:100E400079F00F3081F49C013695322F22273795A7
:100E5000279580913C04822B80933C040F91089548
:100E600040933C04F0CF10923C04EDCF30913B0412
:100E70003F773817190691F7822F90E030913D04A3
:100E80003078231729F02091380428602093380403
:100E90009695982F882797958795482B40933D04E2
:100EA000DDCF81508E30D8F4E82FF0E0E65AF84FCD
:100EB0000C94CC1E68076A077007720776077807DC
:100EC0007E078007840786078A078C0790079207AA
:100ED000A998089580916200877F809362000895A9
:100EE000A8980895809162008B7FF7CF9698089517
:100EF000809165008D7F8093650008951C9808950A
:100F0000809162008F7BE9CF1B98089580916200E9
:100F10008F7DE3CF1A980895809162008F7EDDCF98
:100F2000AA980895809162008D7FD7CF1F93CF93A9
:100F3000DF93EC018A819B8110E0892BE9F48D819C
:100F40009E8110E0892B69F588818E7F8883DF91EF
:100F5000CF911F910895812F90E0880F991FEA810A
:100F6000FB81E80FF91F0190F081E02D80818F77E0
:100F700080830E9451071F5F8981181760F3DFCFBC
:100F8000812F90E0880F991FED81FE81E80FF91FF6
:100F90000190F081E02D80818F7780830E9451073E
:100FA0001F5F8C81181760F3CFCFFC019081957083
:100FB000953019F4CF010C9496070895FC01208117
:100FC00020FF03C022FF0C949607089581508E30B5
:100FD000D8F4E82FF0E0E151F84F0C94CC1EFD0757
:100FE000FF07050807080B080D081308150819085E
:100FF0001B081F08210825082708A99A0895809131
:1010000062008860809362000895A89A0895809194
:1010100062008460F7CF969A08958091650082609F
:101020008093650008951C9A089580916200806401
:10103000E9CF1B9A0895809162008062E3CF1A9AEB
:101040000895809162008061DDCFAA9A0895809111
:1010500062008260D7CF90913804882361F090615C
:101060009093380481E00E94E60780918A00887F8F
:1010700080938A0008959F7E9093380481E00E94B7
:101080005107109288001092890080918A00846034
:10109000EFCFCF93C82F80913B028C1719F08C2F84
:1010A0000E942B08C0933B02CC23F9F02FB7F89491
:1010B00080911F0290912002A0912102B091220202
:1010C0002FBF482F392F2A2F8B2F40933C0230936C
:1010D0003D0220933E0280933F0280913B028C1799
:1010E00049F08C2FCF910C942B0840E030E020E0A9
:1010F00080E0EBCFCF9108950F931F93CF938C0196
:10110000C0E0F8018181C81720F0CF911F910F91A5
:1011100008958C2F90E0880F991FD8011296ED91B9
:10112000FC91E80FF91F0190F081E02D8081982F4C
:10113000906890838F770E94E607CF5FE2CF1F937E
:10114000CF93DF93EC01288120FD15C022FF13C04F
:10115000322F3160388321FF09C02A813B81232B44
:1011600051F0DF91CF911F910C947C082D813E812D
:1011700010E0232BB9F4DF91CF911F910895812FB7
:1011800090E0880F991FED81FE81E80FF91F019013
:10119000F081E02D8081982F906890838F770E9456
:1011A000E6071F5F8C81181750F3E5CFCF93DF93CD
:1011B000EC018881982F9270691789F0662369F095
:1011C00082608883888180FF0AC0CE010E94D50793
:1011D000CE01DF91CF910C949F088D7FF2CFDF91EC
:1011E000CF9108951F93CF93DF93EC012881322F85
:1011F000357099F4322F3160388321FF09C02A817C
:101200003B81232B51F0DF91CF911F910C947C08EF
:101210002D813E8110E0232BB9F4DF91CF911F91F6
:101220000895812F90E0880F991FED81FE81E80FCE
:10123000F91F0190F081E02D8081982F90689083B4
:101240008F770E94E6071F5F8C81181750F3E5CF58
:10125000CF93DF93EC018881982F9270691789F002
:10126000662369F082608883888180FF0AC0CE018E
:101270000E94DE07CE01DF91CF910C94F2088D7FA2
:10128000F2CFDF91CF910895E5E6F0E080818160B3
:1012900080838FE79EE30197F1F700C00000808113
:1012A0008E7F808308950C9444091F93CF93DF931E
:1012B000EC018091380484FF0BC08FE090E00E9425
:1012C000921E182F80E190E00E94921E181306C013
:1012D000CE01DF91CF911F910C94921EFFCF0C9401
:1012E0005509CF93DF9320914F02309150022F3F49
:1012F000320721F0C901DF91CF9108958091520208
:1013000087FF2BC086FF0FC089E090E00E946F0925
:10131000C82F81E090E00E946F099C2F90935002AB
:1013200080934F0215C089E090E00E946F09C82F9A
:1013300081E090E00E946F0990E4C99F9001112420
:10134000207C31708F73282B3093500220934F02F2
:1013500080914F0290915002CECF85FF0CC081E169
:1013600090E00E946F09C82F82E190E00E946F090F
:10137000C05CDD0BD2CF81E090E00E946F0990E06D
:10138000CDCFCF93863823E0920719F138F4813816
:1013900023E09207D9F0CF910C94921E873823E076
:1013A0009207D1F0883823E09207A9F786E893E006
:1013B0000E94921EC82F87E893E00E94921E90E040
:1013C0002FEFC29F800D911D1124E5CF81E893E09E
:1013D000E2CF86E893E0DFCF87E893E0DCCF0E949E
:1013E0004908E9E3F2E081E087831086E2E4F2E075
:1013F00088E0DF011D928A95E9F708950F931F9306
:10140000CF93DF93EC01162FC63883E0D80781F124
:1014100050F4C13883E0D807F9F0612FCE010E9463
:101420009A1ECE011FC0C73883E0D80741F1C838E3
:1014300083E0D80791F786E893E00E94921E082F78
:1014400087E893E00E94921EC82FD0E08FEF089F9C
:10145000C00DD11D1124E1CF81E893E00E949A1EB6
:1014600081E893E0DF91CF911F910F910C94921E30
:1014700086E893E00E949A1E86E893E0F3CF87E81F
:1014800093E00E949A1E87E893E0ECCFCF93DF931E
:10149000D0E0C0E0FE01E457FF4F6491CE010E940E
:1014A0009A1E2196C03181E0D807A1F761E081E85A
:1014B00093E00E949A1EC0E0CF5F8C2F0E94E60747
:1014C000CE30D1F7DF91CF9108950C94460A1F9347
:1014D000CF93DF9320911C012223C1F02FEF3FEF28
:1014E0003093D7012093D6013093DB012093DA01AA
:1014F0003093DF012093DE013093E3012093E2017A
:101500003093E7012093E60110921C01823091058F
:10151000C9F08330910509F458C020E030E0232B56
:1015200011F00E94000080910F0290911002891B1F
:10153000990B181619060CF044C08FE794E00E942E
:10154000BA05F1CFE4EDF1E0D0E0C0E08281938113
:101550000196E9F4CC0FDD1FCC0FDD1FCC52DE4F1E
:101560001B821A828FE794E00E94BA0588838FE776
:1015700094E00E94BA058983E0911D02F0911E0259
:101580003097C9F4D0931E02C0931D021AC0219651
:101590003496C530D105D1F680910F02909110029A
:1015A000891B990B1816190664F48FE794E00E94C2
:1015B000BA05F2CFFC01828193810097D9F7D383DA
:1015C000C283DF91CF911F9108958FE794E00E942D
:1015D000BA05182F8FE794E00E94BA05D12F90E04A
:1015E000C92FC80FD11DD093E901C093E8018FE73F
:1015F00094E00E94BA05682F8093EA01CE01D7FFDC
:1016000021C09F779093E9018093E801883091058C
:1016100061F0843823E0920741F08C3A23E092078E
:1016200021F0843D23E0920741F481E8683039F4E9
:10163000DF91CF911F910C94460A0E94FE0980937E
:10164000EA01BFCF0E94C109FACF1F93CF93DF9366
:10165000EC01162F089779F4662319F10E94460AC7
:1016600080E090E0892BB9F0612FCE01DF91CF911E
:101670001F910C94000080E090E0892BA9F781E095
:10168000C11590E1D90708F080E0111105C0DF9184
:10169000CF911F91089581E027972297C0F780E0AE
:1016A000F6CF80E090E0892BF9F681E0F0CF0F9340
:1016B0001F93CF93DF93EC01162F8091380484FFA2
:1016C00025C0CF30D10561F48FE090E00E949A1ED2
:1016D0008FE090E0DF91CF911F910F910C94921EBB
:1016E0008FE090E00E94921E082F80E190E00E941F
:1016F000921E08130AC0C730D10531F0C830D10599
:1017000029F4183049F0FFCFFFCFFFCF612FCE0172
:101710000E949A1ECE01DECF0E94460A88E0DF9129
:10172000CF911F910F9108958331910588F48131F4
:10173000910530F48130910519F08930910531F42B
:101740002FEF3FEF3093500220934F020C94570B32
:101750008D319105D9F7677F60935202209139024C
:101760002F73362F307C232B20933902E9CFBF9281
:10177000CF92DF92EF92FF920F931F93CF93DF935D
:101780008B01B42E690182FF23C083FF17C061E083
:10179000C8010E94250B8823D9F16B2DC8010E9436
:1017A000940B8B1135C0F601DF91CF911F910F91F2
:1017B000FF90EF90DF90CF90BF90099460E0C80158
:1017C0000E94250B882321F1C8010E946F09E9CFEF
:1017D000842F8770C1E0D0E07E0101C0EE0C8A95B5
:1017E000EAF7D42FD870CB010E946F09C82FB4FE3E
:1017F0001CC061E0C8010E94250B882349F0DD234D
:1018000089F0CE296C2FC8010E94940B8C1759F2D5
:10181000DF91CF911F910F91FF90EF90DF90CF90CC
:10182000BF900895E094CE21EDCF60E0C8010E9402
:10183000250B882369F3CE21DD2319F0C111B3CF25
:10184000E7CFCC2309F4AFCFE3CFAF92BF92DF92C3
:10185000EF92FF920F931F93CF93DF937C01162F8C
:10186000C42FD22ED42FD07E8091390287FF2CC076
:10187000D03EC1F5A0903A02AA20A1F1B12CC50139
:101880000E946F09D82FC50101960E946F09982FF9
:101890008D2FE816F90631F56C2F70E0762F66274C
:1018A000662773706D296F5F7F4F24E436E0402F09
:1018B0008C2FDF91CF911F910F91FF90EF90DF90D0
:1018C000BF90AF900C94B70B80FD33C0D03609F4B5
:1018D00064C090F4D03209F449C0D03409F45DC03A
:1018E000DD2381F1DF91CF911F910F91FF90EF9058
:1018F000DF90BF90AF900895D03A09F484C090F47F
:101900002C2F2F7141E0D03869F7612FC701DF918B
:10191000CF911F910F91FF90EF90DF90BF90AF900C
:101920000C944E06D03C09F475C0D03E09F4B4CFF7
:10193000D9CF0E9471098E159F0541F2E114F1047F
:1019400029F2D0CF8C2F8E7069F680E090E0892B41
:1019500049F28C2F8170DF91CF911F910F91FF90F1
:10196000EF90DF90BF90AF900C940000CF71CF311B
:1019700009F0B8CF4D2D4F7761F0413061F02D2D3A
:10198000221F2227221F0DE1612FC7010E94070796
:10199000A9CF41E0F4CF40E0F2CF2C2F30E08C2FE4
:1019A0008F71813029F030F0803121F0813109F5DB
:1019B00040E001C041E095E0359527959A95E1F723
:1019C00021700DE1612FC7010E94070780E090E0C0
:1019D000892B09F487CF4C2F612FC701DF91CF915D
:1019E0001F910F91FF90EF90DF90BF90AF900C94FC
:1019F0000000C901880F991F8E71C4FB442740F96C
:101A0000482B4250D8CF2C2F2F7043E0C4FF7DCFFE
:101A100042E07BCFCF71CE3131F0CF3109F062CFD0
:101A20002D2D45E072CF2D2D44E06FCF4F925F9268
:101A30006F927F928F929F92AF92BF92CF92DF92DE
:101A4000EF92FF920F931F93CF93DF93C0911502F4
:101A5000D09116028091FE01811116C02FB7F89423
:101A600080911F0290912002A0912102B091220248
:101A70002FBF8093FA019093FB01A093FC01B093D8
:101A8000FD0181E08093FE018091F201811111C07E
:101A90000E94CF0264517109810991096093EE019E
:101AA0007093EF018093F0019093F10181E08093B6
:101AB000F2010E94CF022B013C018FB7F894C09035
:101AC0001F02D0902002E0902102F09022028FBFEE
:101AD0008091FA01BC2CB81A8091EE019091EF012F
:101AE0009201281B390BC9012091ED01211169C018
:101AF000FE0130E020E045815681C417D50709F08A
:101B000056C045E0429F8001439F100D11240E5F97
:101B10001F4F0C0F1D1F1093EC010093EB010115DB
:101B2000110509F458C0F80114821382843191051B
:101B300008F496C1853F914008F0B8C18D8D9E8D07
:101B40000E944105F801808381E08093ED0140927D
:101B5000EE015092EF016092F0017092F101F6E017
:101B6000FB1508F481C18D8D9E8D0E944105A090CA
:101B7000EB01B090EC019091ED01E92FE695E6952F
:101B8000E695292F277041E050E060E070E004C046
:101B9000440F551F661F771F2A95D2F7EA0DFB2DBC
:101BA000F11D811129C040958081482327C02F5FF6
:101BB0003F4F35962530310509F09DCF10E000E00C
:101BC000AACF26E02B1508F44FC18431910518F0F7
:101BD000853F914040F2DF91CF911F910F91FF908F
:101BE000EF90DF90CF90BF90AF909F908F907F90BD
:101BF0006F905F904F9008958081482B408381E0E3
:101C0000890F8093ED014092EE015092EF016092B6
:101C1000F0017092F101982F9770E9F68031E9F4A4
:101C2000F5018081863780F4EB8DFC8D309721F4AF
:101C3000BC8EAB8E07C0FC01838194810097D9F7DD
:101C4000B482A3821092ED01C092FA01D092FB01FE
:101C5000E092FC01F092FD01BECF8831A9F7F501B9
:101C600011811F778DEF782E710EF7E2F71580F056
:101C700088818130A1F4812E912C1B3261F118F5FD
:101C8000133049F1143029F1111152C0888124C058
:101C900085ED810F883250F48881823061F3E091C4
:101CA000EB01F091EC01D483C383CCCF8DEA810F9B
:101CB000883220F48881833091F7DDCF8EEF810F59
:101CC0008230C8F6ECCF133531F0143511F01C32E8
:101CD00079F58AE001C08DE0F501028190819B37A2
:101CE00069F19F3709F472C09737C9F60813D7CF47
:101CF00061E08D8D9E8D0E9456058D8D9E8D0E947A
:101D000035058FE697E10197F1F700C00000AD8D32
:101D1000BE8D1496ED91FC911597808111969C9142
:101D2000892B808360E08D8D9E8D0E945605B7CFF4
:101D3000C4018F579C4F0E94C109CECF202F28701D
:101D4000302F377004FF35C01D3278F51B3208F094
:101D5000A6CF91E0971508F0A2CF41E050E060E0F7
:101D600070E004C0440F551F661F771F3A95D2F7E5
:101D7000182F142B211103C0142F10951823612F35
:101D8000C4018F579C4F0E94FE09181388CF61E051
:101D90008D8D9E8D0E9456058D8D9E8D0E943505E0
:101DA000EFE6F7E13197F1F7B0CF13551230A8F60F
:101DB00076CF90E002C0959587953A95E2F78170CD
:101DC00099272817190609F06ACF92CF1B32D9F14B
:101DD00090F51330C1F1143009F461CF602FC401C4
:101DE0008F579C4F0E94FE0908131FC061E08D8D24
:101DF0009E8D0E9456058D8D9E8D0E9435058FE625
:101E000097E10197F1F700C00000AD8DBE8D1496EB
:101E1000ED91FC911597808111969C91892B80837F
:101E200060E08D8D9E8D0E945605111138CF0430D3
:101E300078F4088334CF133531F0143509F42FCFFB
:101E40001C3261F62CCF083081F70E94460A9FCFE2
:101E500061E081E893E00E94FE0981E088831FCF62
:101E6000F6E0FB1508F0B7CE99E09B1508F0B3CE6D
:101E7000C092FA01D092FB01E092FC01F092FD01C8
:101E80000091EB011091EC018D8D9E8D0E9441051A
:101E9000F801808381E08093ED014092EE01509241
:101EA000EF016092F0017092F10195CE26E02B15C2
:101EB000D8F291CE9F92AF92BF92CF92DF92EF92E3
:101EC000FF920F931F93CF93DF937C016B01942EAE
:101ED00081E0F701481328C0A280B380E701219672
:101EE000A114B10431F562E070E081E090E00E945D
:101EF000E91E8C01009731F0FC01D182C0828881FB
:101F00008F5F8883F1E09F1242C0F7011383028341
:101F1000DF91CF911F910F91FF90EF90DF90CF90C5
:101F2000BF90AF909F900895A580B680E70124965A
:101F3000D7CF88818F5F8883C82FD0E062E070E0C0
:101F4000CE010E94E91E8C0120E0AE0141505109F2
:101F5000822F90E08417950764F0C150D048CC0FD1
:101F6000DD1FC00FD11FD982C882C5010E94A11FE9
:101F7000C9CF880F991FF501E80FF91F60817181A2
:101F8000800F911FFC01718360832F5FE1CFF70108
:101F900016830583BDCF1F920F920FB60F921124A7
:101FA0002F933F938F939F93AF93BF9380911F0283
:101FB00090912002A0912102B0912202309106025C
:101FC00023E0230F2D3768F126E8230F0296A11D89
:101FD000B11D2093060280931F0290932002A093CC
:101FE0002102B09322028091070290910802A091F1
:101FF0000902B0910A020196A11DB11D809307024A
:1020000090930802A0930902B0930A02BF91AF9186
:102010009F918F913F912F910F900FBE0F901F9026
:1020200018950196A11DB11DD4CF1F920F920FB626
:102030000F9211240BB60F922F933F934F935F9300
:102040006F937F938F939F93AF93BF93EF93FF9380
:10205000E0912B01F0912C010995FF91EF91BF9137
:10206000AF919F918F917F916F915F914F913F9130
:102070002F910F900BBE0F900FBE0F901F901895D1
:102080001F920F920FB60F9211240BB60F922F933F
:102090003F934F935F936F937F938F939F93AF93F0
:1020A000BF93EF93FF93E0912901F0912A010995E5
:1020B000FF91EF91BF91AF919F918F917F916F9120
:1020C0005F914F913F912F910F900BBE0F900FBEDC
:1020D0000F901F9018951F920F920FB60F92112418
:1020E0000BB60F922F933F934F935F936F937F9312
:1020F0008F939F93AF93BF93EF93FF93E09127014B
:10210000F09128010995FF91EF91BF91AF919F91B7
:102110008F917F916F915F914F913F912F910F9090
:102120000BBE0F900FBE0F901F9018951F920F922D
:102130000FB60F9211240BB60F922F933F934F932C
:102140005F936F937F938F939F93AF93BF93EF931F
:10215000FF93E0912501F09126010995FF91EF9100
:10216000BF91AF919F918F917F916F915F914F91AF
:102170003F912F910F900BBE0F900FBE0F901F90AD
:1021800018951F920F920FB60F9211240BB60F9253
:102190002F933F934F935F936F937F938F939F936F
:1021A000AF93BF93EF93FF93E0912301F09124014C
:1021B0000995FF91EF91BF91AF919F918F917F9181
:1021C0006F915F914F913F912F910F900BBE0F90A8
:1021D0000FBE0F901F9018951F920F920FB60F927F
:1021E00011240BB60F922F933F934F935F936F93EE
:1021F0007F938F939F93AF93BF93EF93FF93E09160
:102200002101F09122010995FF91EF91BF91AF91CA
:102210009F918F917F916F915F914F913F912F91FE
:102220000F900BBE0F900FBE0F901F9018951F922E
:102230000F920FB60F9211240BB60F922F933F936C
:102240004F935F936F937F938F939F93AF93BF93BE
:10225000EF93FF93E0911F01F09120010995FF9109
:10226000EF91BF91AF919F918F917F916F915F910E
:102270004F913F912F910F900BBE0F900FBE0F907B
:102280001F9018951F920F920FB60F9211240BB644
:102290000F922F933F934F935F936F937F938F93FF
:1022A0009F93AF93BF93EF93FF93E0911D01F09144
:1022B0001E010995FF91EF91BF91AF919F918F9171
:1022C0007F916F915F914F913F912F910F900BBE36
:1022D0000F900FBE0F901F9018951F920F920FB680
:1022E0000F9211240BB60F922F933F934F935F934E
:1022F0006F937F938F939F93AF93BF93EF93FF93CE
:1023000080917100887F803609F44DC008F040C08C
:10231000883209F4A9C028F5803109F49DC0C8F4B9
:10232000882309F407C1883009F496C0FF91EF9122
:10233000BF91AF919F918F917F916F915F914F91DD
:102340003F912F910F900BBE0F900FBE0F901F90DB
:102350001895883109F488C0803241F78093580479
:1023600014C0803409F4A5C040F48033B9F3883335
:10237000E9F68093580485ECBCC0803509F489C027
:10238000883509F49EC0883489F60E947905CECF3D
:10239000883909F494C038F5883729F050F4883624
:1023A00011F0803719F683E080935A041092D3011C
:1023B00057C0883809F483C0803919F0803809F093
:1023C000B5CF8091D301803208F079C0E091D3017C
:1023D00081E08E0F8093D30180917300F0E0ED5483
:1023E000FE4F80833DC0803B39F0E0F4803A09F431
:1023F00085C0883A09F09ACF84E080935A041092FD
:10240000B2011092B101E0910D02F0910E02099516
:102410008091B10181110FC081E08093B1011092D0
:10242000910109C0803C09F4A6CF883C09F4A3CFF0
:10243000883B09F07BCFE091B20181E08E0F809361
:10244000B201F0E0EF56FE4F8081809373009091CF
:10245000B2018091B10131C0809153048093730027
:1024600085EC8093740062CF909155048091540460
:102470009817B8F58091560490915704E09155044F
:1024800021E02E0F20935504E80FF92FF11D8081D4
:10249000E5CF2091560430915704E091550481E036
:1024A0008E0F8093550480917300E20FF32FF11D7E
:1024B00080839091550480915404981788F285E8A0
:1024C000D0CF2091560430915704E091550481E01B
:1024D0008E0F8093550480917300E20FF32FF11D4E
:1024E000808380915904811150CF81E08093520400
:1024F00084EA8093740010925A0418CF85EC80937C
:10250000740010925A048091D301803230F4E0912B
:10251000D301F0E0ED54FE4F10826091D30170E0E2
:10252000E0910B02F0910C0283EB91E0099510927F
:10253000D301FCCE1092580428CF1F920F920FB6F1
:102540000F9211240BB60F92EF92FF920F931F93ED
:102550002F933F934F935F936F937F938F939F93AB
:10256000AF93BF93CF93DF93EF93FF930FB6F8949E
:10257000A89581B5886181BD11BC0FBE789485B7DF
:102580008F7D85BF10926B01C1E0D1E0D0935B04D9
:10259000C0937D0410925C0410927E040E948B0113
:1025A000811105C080916B018F5F80936B01CF5FBC
:1025B000CF3761F78091690190916A01009731F0FE
:1025C0000E94A11F10926A0110926901D0916B01C3
:1025D000DD2371F161E070E08D2F90E00E94E91E33
:1025E0007C0190936A018093690110E0C1E001E0F1
:1025F00000935B04C0937D0410925C0410927E04EF
:102600000E948B01811105C0F701E10FF11DC0830C
:102610001F5FCF5FCF3761F7D23050F080918A00D3
:10262000887F80938A0080917D008B7F80937D00DE
:10263000109288001092890085B7806285BFFF9153
:10264000EF91DF91CF91BF91AF919F918F917F914A
:102650006F915F914F913F912F911F910F91FF903B
:10266000EF900F900BBE0F900FBE0F901F9018951C
:102670001F920F920FB60F9211240BB60F922F9349
:102680003F934F935F936F937F938F939F93AF93FA
:10269000BF93CF93DF93EF93FF937894C3E3D1E09D
:1026A000E991F991808187FF08C08F7720916801B7
:1026B0009181921720F10E94E60781E0CF34D8077C
:1026C00079F786E984BD809168018F5F8032D1F00F
:1026D00080936801FF91EF91DF91CF91BF91AF910E
:1026E0009F918F917F916F915F914F913F912F912A
:1026F0000F900BBE0F900FBE0F901F9018950E9469
:102700005107DBCF10926801E5CFEFE7F4E01382C9
:10271000128288EE93E0A0E0B0E084839583A683E4
:10272000B78383E591E0918380830895CF93DF930E
:1027300000D01F92CDB7DEB7789483B78C6483BF87
:1027400087B7816087BF22E02EBD8EB581608EBDC8
:102750008FB581608FBD85B5846085BD85B580648A
:1027600085BD80918A00836080938A0080918B0070
:10277000816080938B0087E886B91AB80FB6F89409
:10278000A89581B5886181BD11BC0FBE1ABA17BA70
:1027900014BA11BA12B8109261001092640061E08C
:1027A00081E00E94930281E00E94E30110921002F6
:1027B00010920F0210925C0410927E0410925A0440
:1027C00081E0809359041092520483E10E94E30156
:1027D00082E10E94E301809171008C7F80937100FF
:1027E00088E48093700085E4809374008DE592E026
:1027F00090930E0280930D0289E692E090930C0272
:1028000080930B0232E0309372008CE08093700072
:1028100087E69AE0909312028093110289E296E093
:102820009093140280931302A19A809161008860B2
:1028300080936100A09A8091610084608093610020
:102840008E9A80916400826080936400149A8091D3
:102850006100806480936100139A809161008062BE
:1028600080936100129A8091610080618093610081
:10287000A29A8091610082608093610080916400DF
:102880008160809364008DE190E00E94921E8093AD
:1028900036048CE190E00E94921E809337048DE113
:1028A00090E00E94921E85FFDDC281E190E00E94CF
:1028B000921E8F73482F50E0942F88279B838A8322
:1028C00082E190E00E94921EAA81BB81A82BBB836B
:1028D000AA832A813B8130933A042093390483E10F
:1028E00090E00E94921E80933B0480E880933C0419
:1028F00080933D04ECE9CE2EE1E0DE2EF3E3EF2EF3
:10290000F1E0FF2EAFE4AA2EA1E0BA2EB7E09B2E95
:10291000F60105911491C8010E94921E8983C80195
:1029200001960E94921E8A830E5F1F4FC8010E946B
:10293000921E803228F06FE1C8010E94AB1E8FE129
:10294000D7010D911D917D01F8018183FA81F03845
:1029500009F499C2F13809F49FC2F11113C0398109
:10296000399D900111242D5A3D4F3B832A8341E02C
:10297000B801C9010E945A0F40E0B8018A819B81C9
:102980000E945A0F82E0C80ED11CAE14BF0409F099
:10299000BFCF85E190E00E94921E80FF05C090911C
:1029A0005A02946090935A0281FF05C0909161028F
:1029B00094609093610282FF05C0909168029460D8
:1029C0009093680283FF05C090916F02946090938A
:1029D0006F0284FF05C09091760294609093760216
:1029E00085FF05C090917D02946090937D0286FFE3
:1029F00005C09091840294609093840287FF05C083
:102A000080918B02846080938B0286E190E00E942B
:102A1000921E80FF05C090915302946090935302E0
:102A200082FF05C09091920294609093920283FF7E
:102A300005C09091990294609093990284FF05C01B
:102A40009091A00294609093A00285FF05C09091A0
:102A5000A70294609093A70286FF05C09091AE02F2
:102A600094609093AE0287FF05C08091B5028460A8
:102A70008093B5028FE190E00E94051F9B838A83BB
:102A800085E1AA81BB8111968C9386E090E00E943B
:102A9000051FDC01EAE6F2E0E4911196EC93119750
:102AA000E5E3F2E024912C9330E0220F331FF9018B
:102AB000E451FE4F8591949113969C938E931297B7
:102AC000F901E45FFD4F8591949115969C938E9347
:102AD0001497EA81FB81B68FA58FF0935104E093A0
:102AE000500481E893E00E94C109AA81BB818C93C4
:102AF000843048F061E081E893E00E94FE0981E0C3
:102B0000EA81FB8180832A813B81309316022093E6
:102B10001502D90111968C918F3FA1F060E00E94BF
:102B20009302EA81FB8181819CEF980F943020F021
:102B30008251843008F08FEF42E050E066E17DE0A2
:102B40000E94F50260E0AA81BB815D968D919C9107
:102B50000E9456052A813B81F901368325833387FC
:102B60002287308B2787358B248B328F218F148ED1
:102B7000138E82E080934A0284E180934B02E0E36B
:102B8000F2E0E491F0E0EE0FFF1FE450FE4F85917C
:102B9000949190934D0280934C02E5E6F2E0E4912B
:102BA000E0934E0260E084E10E949302E3E2F2E0EF
:102BB00086E1DF011D928A95E9F782E990E0909322
:102BC0001C0280931B0282E590E090931A0280938E
:102BD00019021092390210923A028FEF9FEF9093F0
:102BE000500280934F021092510283E080931802AA
:102BF00080914E028093170243E050E06CE673E050
:102C000080914A020E94F5028DE190E00E946F09D6
:102C1000682F6F738DE190E00E94940B80935202B5
:102C200062E187E090E00E94940B6DE088E090E024
:102C30000E94940B80E00E94EF0914BC15BC85B57E
:102C4000887F85BD87B7806487BF85B5836085BD74
:102C5000109288001092890010928A0010928B00C6
:102C600080918A00846080938A0080917D008460D6
:102C700080937D0085B7837E85BF85B7806285BFE1
:102C8000B1E0B98320E0C22E20E0D22E30E0432E06
:102C900030E0532E40E0642E40E0742E50E0E52EEC
:102CA00050E0F52E60E0A62E60E0B62EE0911D0209
:102CB000F0911E02309709F0F5C0E981EB3009F080
:102CC000B9C2FBE0F9838091380482FF20C083E51C
:102CD00092E09B838A8315E460913C0480913604E2
:102CE00080FF08C76095661F6627661F8A819B81E3
:102CF0000E9428091150AA81BB811796BB83AA8321
:102D00001111EACF809138048B7F80933804809131
:102D1000380483FF21C0E3E5F2E0FB83EA8315E496
:102D200060913D0480913B0487FFE6C66095661F75
:102D30006627661F8A819B810E94D60811502A81CE
:102D40003B81295F3F4F3B832A831111E9CF80915B
:102D50003804877F809338048091380480FF3EC018
:102D600006E314E028EF822E912C37E0332E9110E9
:102D7000DEC680913E0484FFC1C683E592E00E94D6
:102D8000F20880913E0480FFBEC68AE592E00E9470
:102D9000F20880913E0481FFBBC681E692E00E946A
:102DA000F20880913E0482FFB8C688E692E00E9455
:102DB000F20880913E0483FFB5C68FE692E00E9440
:102DC000F20893940F5F1F4FF8E08F0E29E09212E4
:102DD000CECF809138048E7F809338048091380460
:102DE00081FF3EC006E314E088EF882E912C97E027
:102DF000392E911026C78091470484FF09C783E5C7
:102E000092E00E949F088091470480FF06C78AE5F0
:102E100092E00E949F088091470481FF03C781E6EA
:102E200092E00E949F088091470482FF00C788E6D5
:102E300092E00E949F088091470483FFFDC68FE6C1
:102E400092E00E949F0893940F5F1F4FF8E08F0E4F
:102E500029E09212CECF80913804877F8093380486
:102E6000889524CF81E090E00E94921E181634F0DD
:102E700063E081E090E00E949A1E83E0E82FF0E09A
:102E8000FB83EA8326CD4981499DC001112440E09E
:102E9000B8018D5A9D4F74CD5981599DC00111249F
:102EA00041E0F6CF20E030E0232B21F061818081EA
:102EB0000E940000E0911D02F0911E028081813489
:102EC00009F405C108F052C08A3209F463C168F5FB
:102ED000843209F45AC088F4813209F40DC1833276
:102EE00009F413C1811114C0A0E0B0E0AB2B09F4C8
:102EF0005CC081810E94000058C0863209F419C16B
:102F000008F42BC1883209F435C1893209F43BC178
:102F100082819381AFEFBFEFB383A28390931E02B0
:102F200080931D02BBE0B983CECE8E3209F447C137
:102F300058F48C3209F43CC108F433C1E114F104B3
:102F4000A1F1618185E01CC1803309F446C108F418
:102F50003DC1813309F44AC18034D1F6C114D10492
:102F600021F1618180E00E9400001FC0823609F4D7
:102F700071C0A0F5813509F4F0C080F4833409F400
:102F8000B4C008F4ABC0803519F6818160E087FFDA
:102F900002C061E080580E94460207C08E3509F4E5
:102FA0002CC1A0F4823509F0B3CFE0911D02F0915D
:102FB0001E02828193812FEF3FEF33832283909310
:102FC0001E0280931D023BE039837DCE8036E9F1FD
:102FD000813609F09DCF618181E039C0873609F4DF
:102FE00045C058F48436E1F1C0F18536E1F186360A
:102FF00009F08ECF618186E02AC08C3609F411C1B8
:1030000030F4883609F084CF618188E020C08D36A5
:1030100081F18E3609F07CCFA281B381109709F43B
:1030200050CE8C918F3609F64114510409F4BDCF6E
:103030002181622F661F6627661F11968C91A0E87A
:103040008A9FC0011124822B3FC0618180E00E94D1
:103050003702ABCF618182E0FACF618183E0F7CFA5
:10306000618184E0F4CF618185E0F1CF618187E007
:10307000EECF6181862F8F774114510409F495CFEB
:10308000811120C01B821A8267FD0FC04A815B81BB
:103090004F5F5F4F5B834A834038510509F485CF0A
:1030A00060E0CA010E940000F1CF8A819B810196F5
:1030B0009B838A838038910509F477CF61E00E9471
:1030C0000000F3CF607890E00E9400006ECFC11442
:1030D000D10409F46ACF618181E045CFC114D104E4
:1030E00009F463CF618182E03ECFC114D10409F4B9
:1030F0005CCF618183E037CF20E030E0232B09F4FF
:1031000054CF81810E94000050CF40E050E0452B19
:1031100009F44BCF818187FD06C0082E000C990B66
:103120000E94000042CF819590E091958195910990
:10313000F7CF80E090E0892B09F437CF818187FDBC
:1031400006C0082E000C990B0E9400002ECF81951E
:1031500090E0919581959109F7CF6114710409F47C
:1031600024CF818160E087FF02C061E080580E9427
:1031700000001BCFE114F10409F417CF618180E056
:103180000E94000012CFE114F10409F40ECF618116
:1031900081E0F6CFE114F10409F407CF618182E008
:1031A000EFCFE114F10409F400CF618183E0E8CFAF
:1031B000E114F10409F4F9CE618184E0E1CFE11476
:1031C000F10409F4F2CE618186E0DACFE114F10472
:1031D00009F4EBCE618187E0D3CFA114B10409F4E7
:1031E000E4CE618181E00E940000DFCEA114B10431
:1031F00009F4DBCE618182E0F6CFA281B381109722
:1032000009F45FCD8C918F3509F0CFCE20E030E00E
:10321000232B09F4CACE11969C9181810E94000053
:10322000C4CE40E050E0452B09F4BFCE81810E941E
:103230000000BBCE40915004509151045B834A83FF
:10324000DA015B96ED91FC91309709F4B2C120E070
:1032500030E0232B21F0618180810E940000AA814F
:10326000BB815B96ED91FC918081813409F4F4C0BF
:1032700008F051C08A3209F44CC160F5843209F477
:1032800059C088F4813209F4FCC0833209F402C1C8
:10329000811114C0A0E0B0E0AB2B09F45BC08181C8
:1032A0000E94000057C0863209F405C108F414C119
:1032B000883209F41EC1893209F424C183819481C2
:1032C000AA81BB81B483A3835C969C938E935B9706
:1032D000BAE029CE8E3209F431C158F48C3209F4A7
:1032E00026C108F41DC1E114F104A1F1618185E05A
:1032F00006C1803309F430C108F427C1813309F4D1
:1033000034C18034D9F6C114D10421F1618180E047
:103310000E9400001FC0823609F468C060F5813544
:1033200009F4DAC080F4833409F4A4C008F49BC023
:10333000803521F6818160E087FF02C061E080581E
:103340000E94460207C08E3509F416C160F482352A
:1033500009F0B4CFAA81BB815B96ED91FC915C979B
:1033600083819481AFCF8036E1F1813609F0A6CF19
:10337000618181E038C0873609F444C058F484364E
:10338000D9F1B8F18536D9F1863609F097CF618148
:1033900086E029C08C3609F403C130F4883609F080
:1033A0008DCF618188E01FC08D3679F18E3609F0AE
:1033B00085CFA381B481109709F497C38C918F3680
:1033C00049F64114510431F22181622F661F6627AC
:1033D000661F11968C91B0E88B9FC0011124822B3F
:1033E00038C0618180E00E943702B4CF618182E001
:1033F000FACF618183E0F7CF618184E0F4CF61810E
:1034000085E0F1CF618187E0EECF4114510409F4EA
:10341000A1CF6181862F8F77D1F410E000E067FDA6
:103420000BC00F5F1F4F0038110509F493CF60E008
:10343000C8010E940000F5CF0F5F1F4F0038110533
:1034400009F488CF61E0C8010E940000F5CF6078E0
:1034500090E00E9400007ECFC114D10409F47ACF1D
:10346000618181E055CFC114D10409F473CF61812A
:1034700082E04ECFC114D10409F46CCF618183E0A6
:1034800047CF20E030E0232B09F464CF81810E94F4
:10349000000060CF40E050E0452B09F45BCF818114
:1034A00087FD03C00E94000055CF819590E0919563
:1034B00081959109F7CF80E090E0892B09F44ACFFC
:1034C000818187FD03C00E94000044CF819590E078
:1034D000919581959109F7CF6114710409F43ACF60
:1034E000818160E087FF02C061E080580E94000097
:1034F00031CFE114F10409F42DCF618180E00E9405
:10350000000028CFE114F10409F424CF618181E0A7
:10351000F6CFE114F10409F41DCF618182E0EFCF11
:10352000E114F10409F416CF618183E0E8CFE114DE
:10353000F10409F40FCF618184E0E1CFE114F104DB
:1035400009F408CF618186E0DACFE114F10409F4CF
:1035500001CF618187E0D3CFA114B10409F4FACE81
:10356000618181E00E940000F5CEA114B10409F44C
:10357000F1CE618182E0F6CFA381B481109709F486
:10358000B6C28C918F3509F0E5CE20E030E0232BD8
:1035900009F4E0CE11969C9181810E940000DACE60
:1035A00040E050E0452B09F4D5CE81810E94000017
:1035B000D1CEE981E13009F086CB80913B028823AE
:1035C000F1F02FB7F89480911F0290912002A09102
:1035D0002102B09122022FBF40913C0250913D0246
:1035E00060913E0270913F02841B950BA60BB70BB6
:1035F0004597A105B10518F080E00E94EF09809180
:103600002502882309F45FCBF89488E0E1E3F2E037
:10361000ABE8B4E001900D928A95E1F71092250293
:10362000789480918B04E82FF0E0E357FB4F8630CD
:1036300018F411928F5FFBCF80E090E0892B21F08E
:103640008BE894E00E94000080918D04811117C0E6
:1036500090918E04911113C080E090E0892B19F0B5
:1036600080E00E94000080913B02882321F081E0ED
:103670000E94490828CB81E00E94EF0924CB909159
:103680003B02992309F495C08057803108F08EC021
:1036900081E00E944908F0918B04FA8380914202F4
:1036A000F8130AC04F2F50E064E472E08DE894E014
:1036B0000E942A20892B61F01092410288E0EBE8F9
:1036C000F4E0A2E4B2E001900D928A95E1F7FBCA22
:1036D000809141028F5F809341022A81233009F05B
:1036E0004CC090918D04892F877010918E04853085
:1036F00029F4109340020E944409E5CA843059F12C
:10370000282F30E0843010F5409140024423F1F03E
:10371000A42FA150BB0BAA0FBB1FAA0FBB1FA20F48
:10372000B31F1196BB83AA8393FF1AC061E08A81FD
:103730009B810E94250B882309F4C5CA612F8A81C9
:103740009B810E94940B1813BECAD5CFF901319604
:10375000FB83EA83E9CF2DE130E03B832A83E4CF8A
:1037600060E08A819B810E94250B882309F4ABCA03
:103770008A819B810E946F09E6CF3A81343009F03B
:10378000A2CA80918D04682F70E0762F6627662785
:10379000737090918E04692B6F5F7F4F23E539E042
:1037A00040918F048C700E94B70B8DCA80E00E94FC
:1037B000EF09E0918D04EF3F61F480918E04811157
:1037C00082CA80E090E0892B09F47DCA0E94000043
:1037D0007ACAE7FD0CC00091900420918F044091BB
:1037E0008E0460E08E2F90E00E94250C6CCAE03CB5
:1037F00008F06BC19091390297FF65CA80918E04E1
:10380000282F30E0A90140955095440F551F440FD3
:10381000551F407C5170EF734E2B5B834A83359567
:103820002795522F5370352E20918B04253069F542
:103830008C788C3051F50E947109AA81BB818A175E
:103840009B0721F0AF3FB14009F03DCAF0918E04D3
:103850002F2F30E0522F44274427537080918F043C
:10386000480F511D4F5F5F4F5B834A831091900457
:1038700061E0CA010E94250B612F882309F423CA45
:103880008A819B810E94940B1ECA8A809B8051E092
:10389000851A9108880C991C880C991C832884012E
:1038A0000F5F1F4F809151028823F9F096FF41C0AE
:1038B000C80160E071E00E94B81E682F81E090E0CE
:1038C0000E94940BC80117FF02C081509F4F692FBF
:1038D00089E090E00E94940B80E090E0892B19F041
:1038E000C8010E940000109251028091390280FDAF
:1038F0003CC080918B04843009F052C080918E04CA
:103900008978813009F0DFC960918F0480E090E010
:10391000892B19F0C8010E94000080E090E0892BFB
:1039200009F4D1C940918F04632DC8010E940000A1
:10393000CAC96A817B816F73772781E090E00E941A
:10394000940B6A817B81E6E075956795EA95E1F7CE
:1039500089E090E00E94940B80E090E0892B19F2BE
:103960008A819B810E940000BECF86FF0CC00E940E
:1039700071098017910709F4BCCF0D3F87E0180744
:103980000CF0B7CFA0C90E947109AA81BB818A1728
:103990009B0709F4AECFAF3FB14009F4AACF93C95A
:1039A000833079F540918E04F42FF1708F2E43FB14
:1039B000992490F880E090E0892B39F04770292D08
:1039C0006A817B81C8010E9400008091390286FFD4
:1039D0000BC080E090E0892B09F475C9492D682D52
:1039E000C8010E9400006FC980E090E0892B09F4B3
:1039F0006AC9292D482D632D8A819B810E94000070
:103A000062C9863009F05FC980918E04982F997839
:103A1000913021F08F78803809F055C980913902B2
:103A200086FF2BC00E9471098017910711F58091C4
:103A30008F0490E0382F2227222733704091900482
:103A4000A42FA20FB32FB11D1196BB83AA8310918F
:103A500091049595879595958795837099278230E0
:103A60009105B1F0039709F02EC961E08A819B812D
:103A700001CF0D3F1740DCF626C90E947109EA818B
:103A8000FB818E179F0799F2EF3FF14081F21BC92E
:103A900014FF19C961E08A819B810E94250B88234C
:103AA00009F411C98A819B810E946F09912F977037
:103AB00061E070E001C0660F9A95EAF713FF02C05B
:103AC000682BDECE60956823DBCEE83E08F0FBC8AD
:103AD000E05CFF0B80918E04009191042091900492
:103AE00040918F0461E09E2F7FCE3AE06DCA4AE09C
:103AF0004983E9C86078FAC860781CC983E592E018
:103B00000E94DE073EC98AE592E00E94DE0741C9B5
:103B100081E692E00E94DE0744C988E692E00E94B6
:103B2000DE0747C98FE692E00E94DE074AC9882D6A
:103B300090E00596389EA001399E500D11245B83BC
:103B40004A83CA018D5A9D4FD80118962C9120FFA7
:103B50004AC00E94F2088A819B81865A9D4FF801D3
:103B6000208521FF43C00E94F2088A819B818F59E2
:103B70009D4FD80118962C9122FF3BC00E94F2085D
:103B80008A819B8188599D4FF801208523FF34C08D
:103B90000E94F2088A819B8181599D4FD801189615
:103BA0002C9124FF2CC00E94F2088A819B818A58A4
:103BB0009D4FF801208525FF25C00E94F2088A81CB
:103BC0009B8183589D4FD80118962C9126FF1DC0CC
:103BD0000E94F2088A819B818C579D4FF8012085B5
:103BE00027FFA2CFECC80E94DE07B5CF0E94DE07F8
:103BF000BCCF0E94DE07C4CF0E94DE07CBCF0E945D
:103C0000DE07D3CF0E94DE07DACF0E94DE07E2CFC5
:103C100083E592E00E94D507F6C88AE592E00E940B
:103C2000D507F9C881E692E00E94D507FCC888E66E
:103C300092E00E94D507FFC88FE692E00E94D50768
:103C400002C9882D90E00596389EA001399E500D3E
:103C500011245B834A83CA018D5A9D4FD801519626
:103C60002C9120FF4AC00E949F088A819B81865A1E
:103C70009D4FF801218921FF43C00E949F088A813E
:103C80009B818F599D4FD80151962C9122FF3BC0AB
:103C90000E949F088A819B8188599D4FF801218944
:103CA00023FF34C00E949F088A819B8181599D4FC8
:103CB000D80151962C9124FF2CC00E949F088A8124
:103CC0009B818A589D4FF801218925FF25C00E94BC
:103CD0009F088A819B8183589D4FD80151962C91D2
:103CE00026FF1DC00E949F088A819B818C579D4F93
:103CF000F801218927FFA2CFA4C80E94D507B5CF1C
:103D00000E94D507BCCF0E94D507C4CF0E94D5071B
:103D1000CBCF0E94D507D3CF0E94D507DACF0E9420
:103D2000D507E2CFE199FECF9FBB8EBBE09A9927E2
:103D30008DB30895262FE199FECF9FBB8EBBE09AED
:103D400001970DB2021631F02DBB0FB6F894E29A2E
:103D5000E19A0FBE0895262FE199FECF9FBB8EBB3F
:103D60002DBB0FB6F894E29AE19A0FBE0196089522
:103D700097FB072E16F4009407D077FD09D00E9418
:103D8000D51E07FC05D03EF4909581959F4F089570
:103D9000709561957F4F0895EE0FFF1F0024001C62
:103DA0000BBE0790F691E02D0994AA1BBB1B51E1B5
:103DB00007C0AA1FBB1FA617B70710F0A61BB70B9B
:103DC000881F991F5A95A9F780959095BC01CD0140
:103DD00008950F931F93CF93DF93869F8001879F52
:103DE000100D969F100D1124C8010E94051FEC01B3
:103DF000009729F0A80170E060E00E943720CE0112
:103E0000DF91CF911F910F9108950F931F93CF933F
:103E1000DF938230910510F482E090E0E091950408
:103E2000F091960430E020E0B0E0A0E0309799F403
:103E30002115310509F44AC0281B390B24303105FE
:103E4000D8F58A819B816115710589F1FB01938306
:103E50008283FE0111C04081518102811381481784
:103E60005907E0F04817590799F4109761F0129636
:103E70000C93129713961C933296CF01DF91CF913A
:103E80001F910F9108950093950410939604F4CF19
:103E90002115310551F04217530738F0A901DB0114
:103EA0009A01BD01DF01F801C1CFEF01F9CF909375
:103EB000960480939504CDCFFE01E20FF31F81930A
:103EC00091932250310939832883D7CF20919304CD
:103ED00030919404232B41F420912F013091300133
:103EE000309394042093930420912D0130912E015E
:103EF0002115310541F42DB73EB740913101509164
:103F00003201241B350BE0919304F0919404E217E5
:103F1000F307A0F42E1B3F0B2817390778F0AC01EC
:103F20004E5F5F4F2417350748F04E0F5F1F5093C9
:103F3000940440939304819391939FCFF0E0E0E049
:103F40009CCFCF93DF930097E9F0FC013297138267
:103F50001282A0919504B0919604ED0130E020E02A
:103F60001097A1F420813181820F931F2091930437
:103F7000309194042817390709F061C0F093940434
:103F8000E0939304DF91CF910895EA01CE17DF0704
:103F9000E8F54A815B819E0141155105B1F7E901C0
:103FA000FB83EA8349915991C40FD51FEC17FD0794
:103FB00061F4808191810296840F951FE9019983B4
:103FC0008883828193819B838A83F0E0E0E012966C
:103FD0008D919C9113970097B9F52D913C91119774
:103FE000CD010296820F931F209193043091940487
:103FF0002817390739F6309751F510929604109228
:104000009504B0939404A0939304BCCFD383C2834C
:1040100040815181840F951FC817D90761F44E5F05
:104020005F4F88819981480F591F518340838A814E
:104030009B81938382832115310509F0B0CFF093E2
:104040009604E09395049ECFFD01DC01C0CF13825E
:104050001282D7CFFB01DC0104C08D910190801941
:1040600021F441505040C8F7881B990B0895DC019A
:1040700001C06D9341505040E0F70895F894FFCF90
:104080000EFF0DFF0CFF0BFF0AFF09FF08FF07FFE4
:1040900006FF05FF04FF03FF02FF01FF01340500D7
:1040A0000000000000000000000000000000009779
:1040B0000480001A01180116011401120110010EEA
:1040C000010C010A010801060104010201000100BE
:1040D000000000FA05CD054106AA057205BA05AB38
:0240E0000500D9
:00000001FF
